:020000040800F2
:1000000000130020DD190008190800081B0800086B
:100010001F08000823080008270800080000000047
:100020000000000000000000000000002B08000895
:100030002D080008000000002F0800083108000803
:10004000F7190008F7190008F7190008F719000850
:10005000F7190008F719000871160008471600087C
:10006000F7190008F7190008F7190008F719000830
:10007000F7190008F7190008F7190008F719000820
:10008000F7190008F7190008F7190008F719000810
:10009000F7190008F7190008F7190008E11500081A
:1000A000F7190008F7190008F7190008F7190008F0
:1000B000F7190008F7190008F7190008F7190008E0
:1000C000F7190008F7190008F7190008F7190008D0
:1000D000F719000847190008F7190008F719000870
:1000E000F7190008F7190008F719000800F002F8DE
:1000F00000F05AF80AA090E8000C82448344AAF168
:100100000107DA4501D100F04FF8AFF2090EBAE865
:100110000F0013F0010F18BFFB1A43F0010318473B
:10012000AC3F0000CC3F00000A444FF0000C10F838
:10013000013B13F0070408BF10F8014B1D1108BF65
:1001400010F8015B641E05D010F8016B641E01F805
:10015000016BF9D113F0080F1EBF10F8014BAD1C55
:100160000C1B09D16D1E58BF01F801CBFAD505E073
:1001700014F8016B01F8016B6D1EF9D59142D6D3CD
:10018000704700000023002400250026103A28BFF5
:1001900078C1FBD8520728BF30C148BF0B607047F9
:1001A0001FB51FBD10B510BD02F0E4FC1146FFF7EE
:1001B000F7FF00F0B6F902F002FD03B4FFF7F2FF1B
:1001C00003BC01F065FB000070B5FEA20021182001
:1001D00000F032FD002416E0E106080E3E22052163
:1001E00000F0A8FC2546E11704EB5171C910A4EBFF
:1001F000C10101EB81010A2202EB410188B201F049
:100200001AFB601CC4B2102CE6DB70BD08B500F010
:1002100071FCEF480223802200210090602000F052
:1002200057FD07220221002000F021FD08220221B3
:10023000122000F01CFD09220421002000F017FD0F
:1002400008220421122000F012FD3A22022125206A
:1002500000F070FC3A220421252000F06BFC2E22D5
:100260000221472000F066FC2E220421472000F0E6
:1002700061FC432202215A2000F05CFC252204216B
:100280005A2000F057FC00220621104600F0EFFC37
:1002900001220621122000F0EAFC0222062124207D
:1002A00000F0E5FC03220621362000F0E0FC0422E9
:1002B0000621482000F0DBFC052206215A2000F030
:1002C000D6FC062211466C2000F0D1FC102002233F
:1002D0000090C04802780021084600F06BFC08BD81
:1002E00038B500F0D9FEBC49086000F0FFFEBB49FC
:1002F0000860B9480068642190FBF1F410200223E3
:10030000224619460090372000F054FCB24800689D
:100310000A2190FBF1F090FBF1F201FB1204102096
:100320000123224602210090482000F043FCAA4805
:1003300000680A2190FBF1F201FB12041020012356
:10034000224602210090502000F034FCA3480068AF
:10035000642190FBF1F41020022322460421009036
:10036000372000F027FC9D4800680A2190FBF1F03F
:1003700090FBF1F201FB120410200123224604211C
:100380000090482000F016FC944800680A2190FB79
:10039000F1F201FB120410200123224604210090F7
:1003A000502000F007FC38BD08B500F0A3FB8848DA
:1003B0000223802200210090602000F089FC88A2A6
:1003C0000621002000F038FC87A20021282000F040
:1003D00033FC87A20221282000F02EFC86A20421F3
:1003E000282000F029FC87A20621482000F024FCE8
:1003F00008BD08B5102002230B22194600903720B3
:1004000000F0D8FB102001231A460221009048205A
:1004100000F0D0FB102001231A460221009050204A
:1004200000F0C8FB102001231A460221009058203A
:1004300000F0C0FB102001231A460221009060202A
:1004400000F0B8FB102001231A460221009068201A
:1004500000F0B0FB102002230B2204210090372073
:1004600000F0A8FB102001231A4604210090482028
:1004700000F0A0FB102001231A4604210090502018
:1004800000F098FB102001231A4604210090582008
:1004900000F090FB102001231A46042100906020F8
:1004A00000F088FB102001231A46042100906820E8
:1004B00000F080FB08BD10B500F01CFB0A220221F1
:1004C000002000F0D4FB0B220221122000F0CFFB11
:1004D0000A220421002000F0CAFB0C220421122071
:1004E00000F0C5FB3A220221252000F023FB3A222E
:1004F0000421252000F01EFB2E220221472000F0BF
:1005000019FB2E220421472000F014FB5622022161
:10051000702000F00FFB41220421702000F00AFB44
:1005200010BD1CB50020019001F048F901F050FA0F
:1005300000F009FC00F099FD00F0E2FF01F0BEF8C8
:10054000FFF742FE59E131480078032803D02F48D5
:100550000078092802D106202C4908701D49087826
:10056000C11700EB91718910A0EB810141BB2848B4
:100570000078012806D1FFF717FF25480078401EB4
:100580002349087021480078032190FBF1F201FB18
:1005900012004006050E3E222946202000F0CAFA2D
:1005A0001A480078401E032190FBF1F201FB120073
:1005B0004006050E20222946104600F0BBFA29E02D
:1005C00037E000004C6F6164696E672E2E2E0000CC
:1005D000000800205908002050080020540800207E
:1005E0004D656175000000004D65617375726500B1
:1005F000566F6C7461676500416E696D6174696FF7
:100600006E0000004C796372616674005808002027
:100610005A08002079480078401C032190FBF1F231
:1006200001FB12004006050E20222946104600F06C
:1006300081FA73490878C11700EB91718910A0EB1A
:10064000810101290FD16F480078012806D1FFF7F9
:10065000DDFD6C480078401E6A490870FFF740FED7
:10066000C82001F0E8F866490878C11700EB9171DD
:100670008910A0EB810102297ED16248007801280F
:1006800006D1FFF718FF5F480078401E5D490870EB
:100690000A21022001F077F804460A21032001F024
:1006A00072F8814610200423224600210090252064
:1006B00000F080FA204602F09DFF834602F0ECFE37
:1006C00007464FF06632504B02F0FEFC054602F042
:1006D00083FA8246504602F06DFF84B21020012357
:1006E000224602210090412000F064FA204602F0E8
:1006F00081FF0546514603F05DF882464349504666
:1007000002F08CFF8246504602F054FF054610204E
:1007100003232A46022100904B2000F04BFA1020C0
:1007200004234A4606210090252000F043FA48465B
:1007300002F060FF834602F0AFFE05464FF06632DE
:10074000314B02F0C1FC074602F046FA82465046A1
:1007500002F030FF1FFA80F9102001234A460421DD
:100760000090412000F026FA484602F043FF05467B
:10077000514603F01FF800E014E08246234950463A
:1007800002F04CFF8246504602F014FF054610204E
:1007900003232A46042100904B2000F00BFA64202A
:1007A00001F049F816490878C11700EB91718910DA
:1007B000A0EB8101032920D112480078012806D13D
:1007C00000F098F90F480078401E0E490870104854
:1007D0000823802200210090084600F079FA642066
:1007E00001F029F80B4808238022002100900846D8
:1007F00000F06EFA642001F01EF8A4E6580800200C
:10080000590800205A08002066664A3F00007A44D2
:100810000000002000040020704700BFFEE700BF7A
:10082000FEE700BFFEE700BFFEE770477047704776
:10083000704700000CB50020019000906C480068E3
:1008400040F480306A49086000BF6948006800F4DD
:10085000003000900198401C0190009818B9019850
:10086000B0F5A06FF1D16248006800F4003010B11B
:100870000120009001E0002000900098012843D161
:100880005C48006840F010005A490860084600685B
:1008900020F0030008600846006840F0020008608D
:1008A00053484068524948600846406848600846D6
:1008B000406840F4806048600846406820F47C103E
:1008C00048600846406840F4E81048600846006800
:1008D00040F08070086000BF4548006800F000707C
:1008E0000028F9D04248406820F0030040494860A1
:1008F0000846406840F00200486000BF3C4840683D
:1009000000F00C000828F9D10CBD10B5FFF792FFDC
:1009100010BD10B53648006840F001003449086049
:100920000846406834490840314948600846006834
:10093000324908402E4908600846006820F48020AB
:1009400008600846406820F4FE0048604FF41F002D
:100950008860FFF7DAFF4FF000602949086010BD9A
:1009600010B5002100200022214B5B6803F00C0130
:1009700021B1042906D0082928D107E0214B224CB7
:10098000236027E01F4B204C236023E0184B5B685B
:1009900003F47010164B5B6803F48032022303EB00
:1009A000904022B9194B4343174C23600DE0104B84
:1009B0005B6803F4003323B1144B4343124C2360B0
:1009C00003E0104B4343104C236003E00D4B0E4CEF
:1009D000236000BF00BF064B5B68C3F303130C4CDE
:1009E000E15C094B1B68CB40074C236010BD000045
:1009F00000100240002002400000FFF8FFFFF6FE5A
:100A000008ED00E000127A005C08002000093D00BB
:100A10006008002070B504460E462EB14FF4005118
:100A2000FE4801F076F904E04FF40051FB4801F074
:100A300072F90821FA4801F06EF900251BE04FF425
:100A40008071F74801F067F904F0800028B14FF495
:100A50000041F24801F05DF904E04FF40041EF4835
:100A600001F059F94FF48071ED4801F052F9600638
:100A7000040E681CC5B2082DE1DB0821E84801F02E
:100A800048F94FF40051E54801F043F970BD70B5E5
:100A900004460D4605F1B001C8B20021FFF7BAFFC8
:100AA000102141EA14100021FFF7B4FF04F00F01F8
:100AB00041F001000021FFF7ADFF70BD10B500212E
:100AC0008D20FFF7A7FF00211420FFF7A3FF0021CF
:100AD000AF20FFF79FFF10BD10B500218D20FFF75D
:100AE00099FF00211020FFF795FF0021AE20FFF7AE
:100AF00091FF10BD70B5002419E004F1B001C8B237
:100B00000021FFF787FF00210846FFF783FF002140
:100B10001020FFF77FFF002505E001210020FFF7EF
:100B200079FF681CC5B2802DF7DB601CC4B2082CAD
:100B3000E3DB70BD2DE9F04107460E4690460025E7
:100B40000024A8F12000C5B27F2F02DD0027B01CD1
:100B5000C6B231463846FFF79AFF002408E004EB9E
:100B60000511B04A505C0121FFF754FF601CC4B26C
:100B7000082CF4DB701CC1B23846FFF788FF002454
:100B800009E004EB05110831A64A505C0121FFF78A
:100B900041FF601CC4B2082CF3DBBDE8F08110B546
:100BA0000246012000E050430B1EA1F10104E1B216
:100BB000F9D110BD2DE9FF5F074691461D460E9EF7
:100BC0004FF0000A002433E0281B401EC1B20A2067
:100BD000FFF7E5FFB9FBF0F00A21B0FBF1F201FBF2
:100BE0001208BAF1000F13D1681EA04210DDB8F14F
:100BF000000F0BD1B34606EBDB71491001FB04710A
:100C0000C8B220220199FFF795FF0FE04FF0010ACB
:100C1000B34606EBDB71491001FB0471C8B208F161
:100C20003001CAB20199FFF785FF00BF601CC4B252
:100C3000AC42C9DBBDE8FF9F2DE9F04104460F46F9
:100C4000154600260EE0AA5D39462046FFF772FFE2
:100C500004F10800C4B2782C02DD0024B81CC7B22D
:100C6000701CC6B2A85D0028EDD1BDE8F0812DE969
:100C7000F04180460E461546002731464046FFF7B4
:100C800006FF00240AE0684A02EB8511085D012195
:100C9000FFF7C0FE781CC7B2601CC4B2102CF2DB98
:100CA000701CC1B24046FFF7F2FE00240CE0690060
:100CB000491C5D4A02EB4111085D0121FFF7AAFEC4
:100CC000781CC7B2601CC4B2102CF0DBBDE8F08108
:100CD0002DE9F05F06460F4690461C46DDF828A039
:100CE0004FF0000BE11704EB5171C910A4EBC101E7
:100CF00031B92046E11704EB5171C1F3C70506E095
:100D00002046E11704EB5171C910491CCDB23D4694
:100D100015E029463046FFF7BAFEB1460BE05946CA
:100D20000BF1010B1AF801000121FFF773FE09F125
:100D3000010000F0FF09C145F1DB681CC5B2A54206
:100D4000E7DBBDE8F09F08B501210C2001F0F0F9C8
:100D50004FF48070ADF8000010208DF803000320E0
:100D60008DF8020069462E4800F026FF4FF46040DF
:100D7000ADF8000010208DF8030003208DF802006C
:100D80006946264800F018FF4FF48071244800F0AF
:100D9000C0FF4FF46041214800F0BBFF4FF400500A
:100DA000ADF800006946214800F006FF4FF40051FD
:100DB0001E4800F0B0FF4FF48041184800F0A9FF32
:100DC000642000F038FD4FF48041144800F0A3FF88
:100DD000642000F030FD4FF48041104800F099FF8E
:100DE0000021AE20FFF716FE00210846FFF712FE95
:100DF00000211020FFF70EFE00214020FFF70AFE21
:100E000000218120FFF706FE0021CF20FFF702FE20
:100E10000021A120FFF7FEFD002109E0000C0140A8
:100E200000080140DA3A0008700800200010014074
:100E3000C820FFF7EFFD0021A620FFF7EBFD002102
:100E4000A820FFF7E7FD00213F20FFF7E3FD002189
:100E5000D320FFF7DFFD00210846FFF7DBFD00216F
:100E6000D520FFF7D7FD00218020FFF7D3FD00211B
:100E7000D920FFF7CFFD0021F120FFF7CBFD0021A6
:100E8000DA20FFF7C7FD00211220FFF7C3FD002184
:100E9000DB20FFF7BFFD00214020FFF7BBFD002155
:100EA0002020FFF7B7FD00210220FFF7B3FD00214E
:100EB0008D20FFF7AFFD00211420FFF7ABFD0021CF
:100EC000A420FFF7A7FD0021A620FFF7A3FD002126
:100ED000AF20FFF79FFD0021AF20FFF79BFDFFF73D
:100EE00009FE00210846FFF7D2FD08BD70B5064691
:100EF0000C46154600F063F9802000F014FA00F06B
:100F00009FF9304600F00FFA00F09AF905E02078DA
:100F100000F009FA00F094F9641C281EA5F1010103
:100F2000CDB2F4D100F06BF970BD2DE9F041074668
:100F30000C461546002600F042F9802000F0F3F937
:100F400000F07EF9384600F0EEF900F079F900F093
:100F500056F907E0142000F04AFC701CC6B20A2EB5
:100F600000DB03E0844800680028F3D100BF00F0F4
:100F700026F9812000F0D7F900F062F90AE000209C
:100F800000F005FA2070641C15B900F0A9F901E021
:100F900000F083F9281EA5F10101CDB2EFD100F0D8
:100FA0002EF9BDE8F0812DE9F04107460C461546C3
:100FB000002600F004F9802000F0B5F900F040F9B7
:100FC000384600F0B0F900F03BF900F018F909E0FC
:100FD000142000F030FC701CC6B20A2E02DB002088
:100FE00065490860644800680028F1D10A2000F0D3
:100FF00022FC00F0E4F8812000F095F900F020F9DF
:101000000AE0012000F0C3F92070641C15B900F05B
:1010100067F901E000F041F9281EA5F10101CDB208
:10102000EFD100F0ECF8BDE8F08108B580208DF834
:10103000000000208DF80100022269461046FFF7EB
:1010400055FF142000F0F7FB08BD38B5002444F428
:10105000805420128DF80000E0B28DF801000222C9
:1010600069461046FFF742FF38BD10B5002400F076
:101070008FF8FFF7DAFFFFF7E8FF07E0142000F032
:10108000B6FB601CC4B2642C00DB03E03A48006885
:101090000028F3D100BF10BD2DE9FE4F022202A9A6
:1010A0000020FFF780FF9DF809109DF8082041EA15
:1010B000022001F0F2FF80460022304B01F066FE74
:1010C000064600222E4B01F0FFFF044600222D4B66
:1010D00002F0F8F8824600222B4B01F0F5FFCDE933
:1010E000000101F0ABFF00B2BDE8FE8F2DE9F8432F
:1010F000022269460120FFF756FF9DF801109DF876
:10110000002041EA022001F0C8FF064600221B4BE6
:1011100001F03CFE044600221C4B01F0D5FF804646
:1011200001F08CFF00B2BDE8F88308B502226946E1
:101130001046FFF7FAFE9DF801009DF8001040EA06
:10114000012008BD08B502226946FE20FFF7EDFE2A
:101150009DF801009DF8001040EA012008BD08B587
:1011600002226946FF20FFF7E0FE9DF801009DF88E
:10117000001040EA012008BD988121420000F040A3
:1011800000A0644000004440000059400088C34073
:1011900008B50121082000F0CBFF6020ADF8000069
:1011A00010208DF8030003208DF802006946914855
:1011B00000F002FD60218F4800F0ABFD08BD10B5C6
:1011C0008C48006820F470008A490860084600686E
:1011D00040F4401008600120874908608749C1F841
:1011E0009801042000F003FB0020834908600420DC
:1011F00000F0FDFA00208149C1F8980110BD10B53A
:101200007C48006820F470007A490860084600684D
:1012100040F44010086000207749091D08607749B4
:10122000C1F89401042000F0E2FA01207249091D7E
:1012300008607249C1F89401042000F0D8FA10BD8A
:1012400010B500246B48006820F4700069490860FC
:101250000846006840F40000086001206649086004
:10126000022000F0C4FA01206449C1F8980102206C
:1012700000F0BDFA07E0601CC4B2FA2C03DDFFF7F2
:10128000BEFF012010BD5C48803800680028F2D104
:101290005949091D086000BFF4E710B50020564900
:1012A000091D08605348006820F470005149086027
:1012B0000846006840F44010086000204F49C1F81B
:1012C0009401022000F093FA01204B49091D0860A7
:1012D000022000F08CFA00204849C1F8980110BDA6
:1012E00010B500204449091D08604248006820F4F8
:1012F0007000404908600846006840F440100860EB
:1013000001203E49C1F89401022000F070FA01204A
:101310003949091D0860022000F069FA00203749A8
:10132000C1F8980110BD70B504463248006820F439
:101330007000304908600846006840F440100860BA
:1013400000202D49091D086000251DE0E00918B1A5
:1013500001202949086002E0002027490860600652
:10136000040E022000F043FA01202349091D086001
:10137000022000F03CFA00202049C1F89801022028
:1013800000F035FA681CC5B2082DDFDB70BD70B502
:10139000054600241748006820F4700015490860CD
:1013A0000846006840F400000860002617E00020AE
:1013B0001149091D0860022000F019FA01200F49A7
:1013C000C1F898016006040E0B488038006808B127
:1013D000601CC4B2012000F00AFA701CC6B2082ECC
:1013E000E5DB15B9FFF77CFF01E0FFF756FF20466C
:1013F00070BD0000000C0140948121420080214218
:1014000008B501210C2000F093FE4FF46070ADF898
:10141000000048208DF803006946364800F0CCFBF8
:101420000320ADF8000048208DF8030069463248DB
:1014300000F0C2FB08BD10B5044614B101202F49CD
:1014400008702E480078002837D001212A4800F083
:1014500046FC78B10221284800F041FC50B18021BF
:10146000244800F03CFC28B14FF40071214800F002
:1014700036FC10BB052000F0DEF900201F49087083
:1014800001211D4800F02BFC08B9012010BD0221EC
:10149000194800F024FC08B90220F7E7802115481C
:1014A00000F01DFC08B90320F0E74FF4007111486B
:1014B00000F015FCD8B90420E8E701210E4800F03F
:1014C0000EFC012813D102210B4800F008FC012872
:1014D0000DD18021074800F002FC012807D141020C
:1014E000044800F0FCFB012801D1044908700020E9
:1014F000CCE70000000C014000080140B00B0020C8
:101500000EB5FFF77DFF0121084600F011FE07210F
:10151000012000F067FC8020019000208DF8080079
:101520000C208DF8090001208DF80A0001A801F0B7
:1015300075F80121002000F055FC0220019001A85F
:1015400001F06CF80021084600F04CFC01200190ED
:1015500001A801F063F80921012000F043FC4FF4D9
:101560000070019001A801F059F817208DF80000D3
:1015700002208DF8010003208DF8020001208DF873
:101580000300684600F04FFA17208DF80000022093
:101590008DF801008DF8020001208DF803006846E7
:1015A00000F041FA07208DF8000002208DF80100BC
:1015B00001208DF802008DF80300684600F033FA30
:1015C00006208DF8000002208DF8010000208DF823
:1015D000020001208DF80300684600F024FA0EBDD9
:1015E00010B50A2000F027F94FF400712C4800F0E4
:1015F00076FB01280AD18021294800F070FB28B928
:1016000004202849087001202749087080212448B7
:1016100000F065FB01280ED14102214800F05FFB7C
:1016200048B922480068401C2049086020480078DA
:10163000401E1F490870802001F067F84FF40070C9
:1016400001F063F810BD10B50A2000F0F4F8022193
:10165000184800F044FB38B915480078401F11497C
:101660000870012010490870022001F04EF810BDEA
:1016700010B50A2000F0DFF801210E4800F02FFB22
:1016800048B90D480068401C0B49086008480078BC
:10169000401C07490870012001F037F810BD000018
:1016A000000C0140590800205A080020440800207E
:1016B00058080020000801404C08002000B587B001
:1016C00001214FF4017000F033FD4FF4004000F0B1
:1016D00093FC0C20ADF8040000208DF8070001A950
:1016E000344800F069FA344801F018F800200290FC
:1016F0008DF80C008DF80D004FF460200490002050
:10170000059001208DF8180002A92B4801F02DF852
:10171000072301220221284801F0BFF807230222F3
:101720000321254801F0B9F80121234801F049F8C7
:10173000214801F068F800BF1F4801F069F800284F
:10174000FAD11D4801F06EF800BF1B4801F06FF898
:101750000028FAD107B000BD10B5044607230122C6
:101760002146154801F099F80121134801F069F864
:1017700000BF0221104801F0D5F90028F9D00E4829
:1017800001F0F2F810BD2DE9F04107460C460025A6
:10179000002608E03846FFF7DFFF0544052000F08B
:1017A0004AF8701CC6B2A642F4DBB5FBF4F080B276
:1017B000BDE8F081000801400024014010B56FF041
:1017C000040000F07AF92E4800682E49B0FBF1F0D1
:1017D0002D4908700846007800EB4001C1EBC010AD
:1017E0004FF6FF7101EAC0002849088010BD01468C
:1017F000254A12784A434FF0E0235A6100229A6149
:101800001A46126942F001021A6100BF4FF0E0224D
:10181000106900F001021AB100F48032002AF5D0FC
:101820004FF0E022126922F001024FF0E0231A612A
:1018300000229A6170470146144A12884A434FF0C9
:10184000E0235A6100229A611A46126942F00102AD
:101850001A6100BF4FF0E022106900F001021AB1D6
:1018600000F48032002AF5D04FF0E022126922F015
:1018700001024FF0E0231A6100229A6170470000D4
:101880005C08002000127A00B20B0020B40B00208C
:10189000014600BF704700BF494A128802F040026B
:1018A000002AF9D0C2B2464B1B1D1A80704710B5F2
:1018B00086B00446012144F2050000F039FC4FF4E3
:1018C0000070ADF8140003208DF8160018208DF874
:1018D000170005A93B4800F06FF94FF48060ADF8A0
:1018E000140004208DF8170005A9364800F064F9AB
:1018F00025208DF8000003208DF801008DF80200EE
:1019000001208DF80300684600F08DF80194002056
:10191000ADF80800ADF80A00ADF80C00ADF8100005
:101920000C20ADF80E0001A9254800F0A8FC01220A
:1019300040F22551224800F03AFD0121204800F0F4
:101940002AFD06B010BD10B540F225511C4800F02C
:1019500013FE10B31A4800F08FFDC4B21A48008875
:1019600000F40040C8B91848008800F4804060B115
:101970000A2C03D000201449088020E01248008877
:1019800040F400401049088019E00D2C06D10E48A3
:10199000008840F480400C49088010E00A48008824
:1019A000C0F30D0009490C5407480088401C064943
:1019B000088008460088C72801DD0020088010BD87
:1019C0000038014000080140BC0B0020D40B00206F
:1019D00010B54FF4A06000F021F810BD0948804711
:1019E00009480047FEE7FEE7FEE7FEE7FEE7FEE701
:1019F000FEE7FEE7FEE7FEE704480549054A064B19
:101A00007047000013090008ED000008000D0020D9
:101A100000130020000F0020000F00203149014377
:101A2000314A1160704770B5002100230F22C4783D
:101A300004B32D4C246804F4E064C4F5E064210A86
:101A4000C1F10403CA40447804FA03F184781440D5
:101A500021430901254C0678A155047804F01F059F
:101A60000124AC4005786D11AD0005F1E025C5F805
:101A7000004109E0047804F01F050124AC401C4D2E
:101A80000678761145F8264070BD1A4A0A4002438E
:101A9000154B1B1F1A60704739B1134A121D12688B
:101AA0000243114B1B1D1A6006E00F4A121D1268FB
:101AB00082430D4B1B1D1A607047042808D14FF05C
:101AC000E021096941F004014FF0E022116107E0D3
:101AD0004FF0E021096921F004014FF0E02211618B
:101AE000704700000000FA050CED00E000E400E0A3
:101AF00080E100E080FFFF1F10B50446CC4884421F
:101B000008D10121042000F02DFB0021042000F069
:101B100029FB46E0C748844208D10121082000F093
:101B200021FB0021082000F01DFB3AE0C24884425E
:101B300008D10121102000F015FB0021102000F039
:101B400011FB2EE0BD48844208D10121202000F085
:101B500009FB0021202000F005FB22E0B848844268
:101B600008D10121402000F0FDFA0021402000F0C2
:101B7000F9FA16E0B348844208D10121802000F030
:101B8000F1FA0021802000F0EDFA0AE0AE4884422C
:101B900007D10121801500F0E5FA0021A01500F021
:101BA000E1FA10BD10B50121084600F0DBFA002172
:101BB000012000F0D7FA10BD2DE9F04102460025C2
:101BC0000026002000230024002791F803C00CF019
:101BD0000F0591F803C00CF0100CBCF1000F03D0FE
:101BE00091F802C04CEA050591F800C0BCF1000F65
:101BF00031D0146800202BE04FF0010C0CFA00F3F8
:101C0000B1F800C00CEA03069E4220D183004FF0D9
:101C10000F0C0CFA03F7BC4305FA03FC4CEA04046E
:101C200091F803C0BCF1280F06D14FF0010C0CFA5B
:101C300000FCC2F814C00AE091F803C0BCF1480FE0
:101C400005D14FF0010C0CFA00FCC2F810C0401C8A
:101C50000828D1D31460B1F800C0BCF1FF0F34DD07
:101C6000546800202EE000F1080C4FF0010808FA3B
:101C70000CF3B1F800C00CEA03069E4221D18300A8
:101C80004FF00F0C0CFA03F7BC4305FA03FC4CEAC7
:101C9000040491F803C0BCF1280F05D100F1080C31
:101CA00008FA0CF8C2F8148091F803C0BCF1480F90
:101CB00007D100F1080C4FF0010808FA0CF8C2F83F
:101CC0001080401C0828CED35460BDE8F0814FF648
:101CD000FF710180022181700421C17070470246AA
:101CE000002093680B400BB1012000E000207047FA
:101CF0000146886880B2704702460020D3680B40D6
:101D00000BB1012000E0002070470146C86880B296
:101D1000704701617047416170470AB1016100E09D
:101D200041617047C16070474FF480320A4382615D
:101D30008161826182698269704702460020434B5B
:101D400018684FF68073184040EA021008433F4B72
:101D5000186070473E49C8617047F0B50A460023D5
:101D600000240021002500F00046B6F1004F02D10A
:101D7000364EF16901E0354E7168C0F3034583B218
:101D800000F44016B6F5401F08D121F070612F4EC7
:101D9000766826F070662D4F7E6012E000F48016A3
:101DA000B6F5801F06D1032606FA05F4A14341F0DB
:101DB000706106E0460D360103FA06F6B14341F0C4
:101DC000706122B1460D360103FA06F6314300F088
:101DD0000046B6F1004F02D11C4EF16101E01B4EEE
:101DE0007160F0BD30B500228B071C0F0F2303FA82
:101DF00004F2164B08338C1053F824309343134CE1
:101E000008348D1044F8253023468C1053F82430C4
:101E10008C07240F00FA04F423430C4C08348D1073
:101E200044F8253030BD0A49DC31086070470000B5
:101E300000080140000C0140001001400014014066
:101E400000180140001C014000200140000001403A
:101E500000002042DF48006840F00100DD490860D2
:101E600008464068DC490840DA494860084600688E
:101E7000DA490840D74908600846006820F4802005
:101E800008600846406820F4FE0048604FF41F00D8
:101E900088607047CF49096821F48031CD4A1160CC
:101EA0001146096821F480211160B0F5803F03D00C
:101EB000B0F5802F0ED106E0C649096841F48031A3
:101EC000C44A116007E0C349096841F4A021C14A2E
:101ED000116000E000BF00BF704710B5014600224E
:101EE000002300204A11012A02D1BA4C236806E0DF
:101EF000022A02D1B74C236A01E0B64C636A01F0B2
:101F00001F02012494401C400CB1012000E000207D
:101F100010BD38B5002000900024002500BF3120FE
:101F2000FFF7DBFF05460098401C00900098B0F5D5
:101F3000A06F01D0002DF2D03120FFF7CEFF08B105
:101F4000012400E00024204638BD01460020A14ABB
:101F5000106820F0F80040EAC10010607047A04906
:101F600008607047024600209A4B586820F47C10A5
:101F700042EA01031843974B586070479849086636
:101F8000704701460020934A506820F00300084340
:101F9000506070478F48406800F00C007047014661
:101FA00000208C4A506820F0F000084350607047D1
:101FB00001460020874A506820F4E06008435060E2
:101FC000704701460020834A506820F4605040EA80
:101FD000C1005060704729B17E4A527A02437D4B5E
:101FE0005A7204E07B4A527A82437A4B5A727047A3
:101FF0007B49D8310860704701460020754A506817
:1020000020F440400843506070470021714A20325C
:102010001170704A82F82010012802D004280AD1D9
:1020200004E001216B4A2032117005E00521694A64
:102030002032117000E000BF00BF7047694908609E
:1020400070476449096A0143624A116270476549F1
:1020500044390860704730B5002100220024002375
:102060005C4D6D6805F00C0121B1042905D00829EB
:1020700023D105E05C4D056022E05B4D05601FE06B
:10208000544D6D6805F47012524D6D6805F480343E
:10209000022505EB92421CB9544D554305600BE0F7
:1020A0004C4D6D6805F400351DB1504D554305602C
:1020B00002E04D4D5543056002E04B4D056000BF09
:1020C00000BF444D6D6805F0F0010909484D6B5C97
:1020D0000568DD4045603F4D6D6805F4E061090A23
:1020E000434D6B5C4568DD4085603A4D6D6805F495
:1020F0006051C90A3E4D6B5C4568DD40C560354D99
:102100006D6805F44041890B3A4D6B5CC568B5FBC1
:10211000F3F5056130BD29B12E4A526902432D4BBA
:102120005A6104E02B4A526982432A4B5A61704734
:1021300029B1284A92690243264B9A6104E0254A54
:1021400092698243234B9A61704729B1214AD2692F
:102150000243204BDA6104E01E4AD26982431D4BE0
:10216000DA61704729B11B4AD2680243194BDA6021
:1021700004E0184AD2688243164BDA60704729B1EE
:10218000144A12690243134B1A6104E0114A12699E
:102190008243104B1A6170471249403908607047FA
:1021A0000F49C86470470B49C87170470948406AB5
:1021B00040F0807007494862704701460020054A98
:1021C00092680A400AB1012000E0002070470149EE
:1021D00088727047001002400000FFF8FFFFF6FE13
:1021E000000042428004424200127A0000093D0091
:1021F000BE0B0020CE0B002010B50446FB488442E5
:1022000009D101218803FFF7ADFF00214FF4804081
:10221000FFF7A8FF32E0F648844209D101214804C3
:10222000FFF7ADFF00214FF40030FFF7A8FF25E0D6
:10223000F048844209D101218804FFF7A0FF002162
:102240004FF48020FFF79BFF18E0EB48844209D150
:102250000121C804FFF793FF00214FF40020FFF78E
:102260008EFF0BE0E548844208D101210805FFF705
:1022700086FF00214FF48010FFF781FF10BD2DE98C
:10228000F04786B005460E460024A24600BFA14690
:102290000027B08900B100BF2F462C8A4CF6FF7092
:1022A0000440F08804432C82AC894EF6F3100440BD
:1022B000B08831890843718908430443AC81AC8AF2
:1022C0004FF6FF400440B0890443AC8201A8FFF7F9
:1022D000C2FEC648874202D1DDF810A001E0DDF859
:1022E0000CA0A88900F4004040B10AEBCA0000EB42
:1022F0000A1031684900B0FBF1F807E00AEBCA00A8
:1023000000EB0A1031688900B0FBF1F86420B8FBDB
:10231000F0F004012009642101FB1089A88900F470
:10232000004040B1322000EBC900B0FBF1F000F0FA
:102330000700044308E0322000EB09106421B0FBE1
:10234000F1F000F00F0004432C8106B0BDE8F087E7
:102350004FF41651016000218180C18001810C2160
:10236000418100218181704710B502460020108A0A
:102370004FF2FF0318400B884C8823438C8823437B
:10238000CC8823431843108210BD00210180418076
:102390008180C180704721B1828942F400528281DC
:1023A00004E082894DF6FF731A4082817047F0B5D0
:1023B0000346002400260025002040F66A17B94293
:1023C00000D100BF1846C1F3421401F01F060127D7
:1023D00007FA06F5012C01D10C3004E0022C01D1E2
:1023E000103000E014301AB107682F43076002E094
:1023F0000768AF430760F0BD1AB1838A0B4383823D
:1024000002E0838A8B4383827047028A4FF6F0731F
:102410001A400282028A0A430282704782894FF27E
:10242000FF731A40828182890A438281704721B1F9
:10243000828942F00202828104E082894FF6FD73B4
:102440001A4082817047028A4FF6DF731A40028277
:10245000028A0A430282704721B1028A42F4804212
:10246000028204E0028A4BF6FF731A400282704730
:10247000C1F308028280704701468888C0F30800D3
:102480007047818941F0010181817047028BD2B28E
:102490000283028B42EA012202837047028B02F41C
:1024A0007F420283028B0A430283704721B1828AF2
:1024B00042F02002828204E0828A4FF6DF731A40E3
:1024C0008282704721B1828A42F01002828204E047
:1024D000828A4FF6EF731A408282704721B1828A56
:1024E00042F00802828204E0828A4FF6F7731A40B3
:1024F0008282704721B1828942F40042828103E0E6
:102500008289C2F30E028281704721B1828A42F42D
:102510000062828204E0828A4FF2FF731A40828254
:102520007047828A4FF6FB731A408282828A0A437E
:102530008282704721B1828A42F00202828204E0E4
:10254000828A4FF6FD731A4082827047024600204D
:10255000B1F5007F00D100BF13880B400BB1012003
:1025600000E00020704701F40072B2F5007F00D156
:1025700000BFCA430280704770B5024600240023A2
:102580000025002040F66A16B14200D100BFC1F319
:10259000421501F01F03012606FA03F3012D02D1B3
:1025A0009689334006E0022D02D1168A334001E0BD
:1025B000968A33400C12012606FA04F41688344039
:1025C00013B10CB1012000E0002070BD10B5002255
:1025D000002340F66A14A14200D100BF0A12012470
:1025E0009440A3B2DC43048010BD000000380140D9
:1025F0000044004000480040004C004000500040B3
:10260000002044490860091D0860091D0860091D73
:10261000086041483F4914310860704700213D4936
:102620008279002A3AD00A46126803689A430B4618
:102630001A600A1D126803689A430B1D1A6002791A
:1026400011440A6803681A430A60324A0832126861
:1026500003689A432F4B08331A601A1D12680368E7
:102660009A432C4B0C331A604279102A0ED11A1F50
:10267000126803681A43274B08331A601A1D126840
:1026800003681A43234B0C331A600DE02149427949
:1026900011440A6803681A430A6005E0027911448C
:1026A0000A6803689A430A6070470021016001715B
:1026B0000C21417100218171704716491031096860
:1026C0000143144A10321160704701460020114A3C
:1026D000143212680A400AB1012000E0002070475D
:1026E0000C49143108607047014600200022094B54
:1026F0001B6803EA0102074B14331B680B4013B13C
:102700000AB1012000E0002070470249143108603E
:102710007047000000040140FFFF0F0010B50446A1
:10272000FA48844208D101214015FFF71BFD002122
:102730006015FFF717FD17E0F548844208D1012125
:102740000015FFF70FFD00212015FFF70BFD0BE033
:10275000F048844208D10121C803FFF703FD00219E
:102760004FF40040FFF7FEFC10BD30B502460020DC
:1027700000235068E84C20400D790C6844EA052499
:10278000204350609068E54C2040D1E902542C432E
:102790004D7944EA450420439060D06A20F47000EB
:1027A0000C7C641EE4B2234340EA0350D06230BD87
:1027B00000210160017141718160C16001210174DA
:1027C000704721B1826842F00102826003E08268B2
:1027D00022F001028260704721B1826842F4807267
:1027E000826003E0826822F480728260704710B5D4
:1027F0000023CBB21AB144681C43446002E0446831
:102800009C43446010BD816841F0080181607047BD
:10281000014600208A6802F008020AB1012000E0A7
:1028200000207047816841F00401816070470146D3
:1028300000208A6802F004020AB1012000E00020B2
:10284000704721B1826842F4A002826003E082688E
:1028500022F4A00282607047014600208A6802F4D8
:1028600080020AB1012000E00020704710B50A463E
:1028700000210023416821F46041531E41EA4331A5
:10288000416010BD21B1426842F40062426003E041
:10289000426822F4006242607047F0B504460D467B
:1028A00000200021092D11DDE068A5F10A0606EBE4
:1028B0004607072606FA07F18843A5F10A0606EB44
:1028C000460603FA06F10843E0600CE0206905EBD8
:1028D0004507072606FA07F1884305EB450603FA84
:1028E00006F108432061072A0FDA606B561E06EBDB
:1028F00086071F2606FA07F18843561E06EB860652
:1029000005FA06F10843606322E00D2A0FDA206B16
:10291000D61F06EB86071F2606FA07F18843D61F47
:1029200006EB860605FA06F10843206310E0E06A2C
:10293000A2F10D0606EB86071F2606FA07F188436B
:10294000A2F10D0606EB860605FA06F10843E062E1
:10295000F0BD21B1826842F48012826003E0826897
:1029600022F48012826070470146C86C80B27047C2
:1029700066484C300068704721B1426842F480627A
:10298000426003E0426822F480624260704721B1F5
:10299000426842F48052426003E0426822F480526E
:1029A000426070470A460021816821F4E0411143EA
:1029B0008160704721B1826842F40042826003E086
:1029C000826822F400428260704721B1826842F43A
:1029D0000212826003E0826822F402128260704771
:1029E000014600208A6802F400120AB1012000E0CA
:1029F00000207047F0B5044615460020002200264E
:102A0000092911DDE068A1F10A0707EB470C072748
:102A100007FA0CF29043A1F10A0707EB470703FA04
:102A200007F21043E0600CE0206901EB410C07273E
:102A300007FA0CF2904301EB410703FA07F2104347
:102A40002061A06BC0F30156EF1C06F1010CA7EB4F
:102A50000C0707EB870C1F2707FA0CF29043EF1CBB
:102A600006F1010CA7EB0C0707EB870701FA07F249
:102A70001043A063F0BD10B50A4600210023816B0E
:102A800021F44011531E41EA0351816310BD08B582
:102A9000002300930090009B0B440093009B1A605E
:102AA00008BD08B5024600200090009201F1280000
:102AB000009B184400900098006880B208BD0A4648
:102AC00000214168164B1940114341607047416233
:102AD000826270470A460021416821F01F011143BC
:102AE0004160704740B109490831096841F400016B
:102AF000064A0832116007E004490831096821F4E8
:102B00000001024A083211607047000000240140B1
:102B100000280140003C0140FFFEF0FFFDF7F1FFFF
:102B2000FFFD3FFF0246002013680B400BB1012060
:102B300000E000207047CA430260704770B502464B
:102B40000020002300240B125568CEB205EA0604CB
:102B500015681D4015B10CB1012000E0002070BDCA
:102B600000220A12D34303607047704770477047D2
:102B700070477047754600F02BF8AE460500694671
:102B8000534620F00700854618B020B5FEF734FF05
:102B9000BDE820404FF000064FF000074FF000085E
:102BA0004FF0000B21F00701AC46ACE8C009ACE8DF
:102BB000C009ACE8C009ACE8C0098D46704710B543
:102BC0000446AFF300802046BDE81040FDF7F5BA9B
:102BD000004870479C0C002021F00042A2F1605296
:102BE000B2F5801F01F0004328BFD2F17F6C0BD9F2
:102BF0005FEA001C43EAC20242EB507018BF704704
:102C000028BF20F001007047B2F5801FBCBF1846F6
:102C100070474FEA410C1CF5001F02D2084600F035
:102C2000C4BD70B500F0FAFA00000089FFF7F6BFE6
:102C30004FF00040A0F580007047000010B591EA09
:102C4000030F48BF83F0004300F14483841A71EB03
:102C5000030C05D2121943EB0C03001B61EB0C01B2
:102C6000DFF824E14FEA1154A4EB135C1EEA430F92
:102C700018BF9EEA445F73D023EA0E03DCF1200EF6
:102C800021EA045143F4801332D322FA0CFE10EBF4
:102C90000E0023FA0CFE41EB0E01CCF1200E03FADC
:102CA0000EFE10EB0E0051F10001B1F5801FCCF1CA
:102CB000200E32D201EB045112FA0EF2BDE81040A0
:102CC00058BF7047401C38BF5FEA420218BF7047C8
:102CD000002814BF20F0010041F100014FEA410338
:102CE00013F5001F38BF7047A1F1C04100F0E4BAEE
:102CF000012A43EB0302ACF1200CDCF11F0E32BFC2
:102D00004FF0000E23FA0CF310EB030041EB0451DB
:102D1000B4EB115FD0D0A1EB045101F5801149084B
:102D20005FEA300001EB04510ED350F1000038BFD0
:102D300012FA0EFE08D1BDE81040C9E7401C38BFAA
:102D40005FEA4202CAD1C3E7BDE810404FEA41033F
:102D500013F5001F38BF7047A1F1C04100F0ACBAB5
:102D60009EEA445F08D011EA5E0FBDE8104004BF40
:102D700001F0004100207047BDE8104070B500F040
:102D80004DFA00BF64FBBE3E0000E0FF2DE9C041EC
:102D900030B4DFF8A0C23CEA111418BF3CEA1314A7
:102DA00000F0EC8081EA03051CEA111444EAD574B2
:102DB00018BF1CEA131500F0C780A4EB05044FF000
:102DC000004545EAC12145EAC32341EA505143EA9F
:102DD000525304F17F74994204F500344FEAC02045
:102DE0004FEAC22208BF904200F09C804FEA136570
:102DF0000FF24016765D4FEA134506FB05F7C7F163
:102E0000807706FB07F74FEAD737A7FB03687642C0
:102E1000C8F58038A7FB06CE38BFA8F1010807FB2C
:102E200008E64FF0000EA6FB028CE6FB03CEDCF1B9
:102E3000000CCEF1004E38BFAEF1010EA6FB0C58CF
:102E40004FF000074FF00005E6FB0E87A1FB08C618
:102E5000A0FB07CE16EB0E0645F10005E1FB07656A
:102E600015F1E04E7EBFA4F580345FEA46066D4161
:102E700016F1800745F100054FEA17274FEA06666D
:102E800047EA0567A6F1DE46B6F1805F4FEA1525F1
:102E90001FD9384624F0010C05EBC471BCF1FE6F5C
:102EA00001EB0C1102D8F0BCBDE8008124425CBFEC
:102EB00001F5801E9EEAC47F02D4F0BCBDE800810B
:102EC000244238D4F0BCA1F1C041BDE8004100F07B
:102ED000F3B94FEAD22242EA43524FEAD323A7FB87
:102EE00002864FEAD02040EA415007FB03661EEA03
:102EF0000E0F4FEAD12105FB026658BFA6EB005624
:102F0000B6EB00564FEA520E4EEAC37E18EB0E0E99
:102F100056EB530EBDD518EB02085E417F1C55F1F0
:102F20000005B6E74FF480154FF000074FF000069C
:102F30004FF00008ADE7F0BC4FF0000001F1C041D8
:102F400001F00041BDE8008111EA0C1F0CEA1315E5
:102F500000D00CE013EA0C1F00F025804FF00000B9
:102F6000F0BC81EA030101F00041BDE80081F0BC42
:102F7000BDE8004181EA030100F09EB9F0BCBDE864
:102F8000004170B500F04AF9097EFC3E00F007B838
:102F900081EA03014FF0000001F00041704781EA2F
:102FA000030100F089B9F0BCBDE800414FF000001A
:102FB00021497047FFFDFBF9F7F5F4F2F0EEEDEB78
:102FC000E9E8E6E4E3E1E0DEDDDBDAD8D7D5D4D327
:102FD000D1D0CFCDCCCBCAC8C7C6C5C4C2C1C0BF73
:102FE000BEBDBCBBBAB9B8B7B6B5B4B3B2B1B0AF79
:102FF000AEADACABAAA9A8A8A7A6A5A4A3A3A2A15D
:10300000A09F9F9E9D9C9C9B9A9999989797969517
:1030100095949393929191908F8F8E8E8D8C8C8BB3
:103020008B8A89898888878786858584848383823B
:10303000828181800000FF070000F87F4FEA410392
:103040004FEA5353A3F58063D3F11E03C8BFD3F1F6
:10305000210C0CDD4FF0004242EAC12242EA5052FC
:1030600032FA03FC8CEAE17CACEBE1707047102B88
:10307000C4BF0020704703F5787CBCF1FF3F04D04B
:103080006FF0004282EA2100704770B500F0C6F888
:103090004992248000207047F2E710F0004248BFB8
:1030A0004042B0FA80F310FA03F10AD0C3F11D03D5
:1030B00003F580634FEA415002EB035202EBD1214A
:1030C00070474FF000007047DFF848C170B51CEA48
:1030D000111E1EBF1CEA13159EEA0C0F95EA0C0F79
:1030E00000F06F8081EA030423EA4C134EEAD47E99
:1030F00021EA4C1141F4801143F48013AE44A1FB4A
:10310000024CA0FB0365AEF17F7E361955EB0C0532
:10311000A1FB034C4CF10003A0FB021C16EB0C06B8
:10312000654153F10003094218BF46F0010613F44C
:10313000007F0BD14FEA03314FEA0530340341EAF7
:10314000155140EA16506FF003020AE04FEAC3211E
:103150004FEAC520F40241EA555140EA56506FF05B
:10316000020202EB2E4201EB025585EACE710AD033
:103170005FEA440C18BF24F0004450F1000041F114
:10318000000120EAD47040F2FE7C624500D270BD9E
:10319000A84214BF4FF080444FF04044002E08BFB7
:1031A0000024BEF1806FA8BFA1F1C041BDE870400E
:1031B00080F282804FF0000001F1C04101F0004137
:1031C00070479EEA0C0F0CEA131518BF95EA0C0F16
:1031D00006D04FF0000081EA030E0EF0004170BDF2
:1031E00000F01CF88900013E00F007B800F009B8B3
:1031F0004FEA430C5FEA5C5C08D081EA030100F00F
:103200005BB84FEA410C5FEA5C5CF6D14FF000001E
:10321000014970470000FF070000F87F0EF1020E21
:103220002EF0030E5EF8046B364205D4012A43EB00
:10323000030515F5001F12D8012841EB010C1CF500
:10324000001F0CD80ED14FEAD17C15F5001F0CEBF6
:103250004C0C0CF1020C08BF4CEBD37C04E04FF09B
:10326000080C01E04FEAD37C0CEB4C0526FA05F67E
:1032700006F00706B6F1040C06D20EEB860CBDE88C
:1032800070404CF0010C6047DFE80CF0090B0202C3
:103290004FF000414FF00000A1F5002170BD19462C
:1032A0001046012851EB010418BFD4F5001484BF67
:1032B000002001F0004170BD0808A0F500114FEAA0
:1032C0003101704710B591EA030F48BF83F0004306
:1032D0003FF5BCAC841A71EB030C07D212198CF0C9
:1032E000004C43EB0C03001B61EB0C01DFF8A4E185
:1032F0004FEA1154A4EB135C1EEA430F18BF9EEA79
:10330000445F00F0B08023EA6E03524221EA045188
:10331000C3EB6E0338BF5B1EDCF1200E25D322FA0F
:103320000CFE10EB0E0043FA0CFE41EB0E01CCF14B
:10333000200E03FA0EFE10EB0E0051F10001CCF14D
:10334000200E29D412FA0EF201EB0451BDE8104010
:1033500058BF7047401C1CBFB2F1004F7047002897
:103360000CBF491C20F00100704712EB020E43EB2A
:10337000030218BF4FF0010E4EEA4202ACF1200CDE
:10338000DCF11E0E54D943FA0CFE10EB0E0051F185
:10339000FF31CCF11E0ED5D50EF1010E12FA0EFE44
:1033A000404141EB010101EB445C5FEA5C5C10D9F8
:1033B00010EBDE7001EB045138BFBEF1004FBDE8E9
:1033C000104018BF704700280CBF491C20F00100B6
:1033D000704730D24FEAD42C11F5001124F4006468
:1033E0001BD0B1FA81F20B3AA41AA41ED2F1200329
:1033F000914030FA03F31943904001EBCC71002C5B
:1034000001EB0451BDE81040A8BF704701F1C04175
:103410004FF0000001F000417047B0FA80F310FA5D
:1034200003F100D110BDE41A173C4805C90AE4E7CE
:1034300001EB045110BD491001EB0451BDE81040EF
:103440004FEA300002E04FF0000170474A0008BF29
:103450000042F8D0B2F5001F28BF704701F00041CC
:103460004FF0000070479EEA445F07D011EA5E0FFC
:10347000BDE8104004BF002100207047BDE81040A7
:1034800070B5FFF7CBFE00BF40DFF63E83F0004192
:10349000104670470000E0FF43004FEAD30C4FEAAC
:1034A0003C0C43401FBF40070CF1605113F0FE4F2E
:1034B00070471CF0006F03D100200CF000417047F2
:1034C0000CF0004343EA507010B540EACC0000F025
:1034D00026F900BF000000924FEA0001FFF7ECBEA2
:1034E0004FF000414FF00000A1F5002170470000AF
:1034F00090EA010F48BF81F0004100F16C81421A4F
:103500003CBF801A89184FEAD0524FF07F4C1CEA1A
:10351000410FA2EBD15318BF9CEA026F00F03B8031
:103520004FF0004C4CEA00204CEA012121FA03FC48
:1035300010EB0C0C1ED202F1FF325FEA1C2040EBB4
:10354000C25038BF70471CF07F0F4FEA400C18BFC5
:10355000BCF17F4F38BF7047C3F12003994008BFCB
:1035600020F00100BCF17F4F38BF7047A0F1C04090
:1035700000F01BB94FEA3C00000A40EBC25028BFE4
:103580001CF0FF0F4FEA400CE6D018BFBCF17F4F94
:1035900038BF7047EAE79CEA026F05D010EA5C0F7B
:1035A00008BF00F00040704710B500F0B8F800BF49
:1035B00064FBBE3EC10DD1F19E0206DB4FEA002343
:1035C00043F0004323FA02F07047004207D54FEA68
:1035D0004001B1F1FE4F02D24FF00000704710B52C
:1035E00000F09DF849922480002070476FEA200087
:1035F00070470000B0FA80F310FA03F2C3F19D03A4
:103600000AD0D90501EB1220530638BF704700F1EC
:10361000010008BF20F00100704700004FF47F0C4C
:103620001CEAD0121EBF1CEAD11392EA0C0F93EAD7
:103630000C0F00F0478090EA010F48BF42F48072FF
:103640004FF0004C4CEA00204CEA012102EB03024F
:10365000A0FB0113A2F50002002918BF43F00103EB
:103660005B0028BF4FEA330342EB22425FEA132C90
:103670004CEBC2502EBFBCEB436FB2F57C0F7047D2
:103680004FEA036CBCF1004F08BF20F00100B2F517
:103690007C0F38BF70470BD582F0FF0212F5803FD8
:1036A000C8BF704700F1C040D8BF00F0004070476D
:1036B00000F5000C5FEA4C0C48BF7047B0F1C04009
:1036C00000F073B890EA010F0CEAD11348BF42F43E
:1036D0008072624538BF634504D280EA010000F081
:1036E0000040704710B500F01AF800BF8900013E95
:1036F00000F007B800F009B85FEA410C5FEA1C6C03
:1037000008D080EA010000F050B85FEA400C5FEAA0
:103710001C6CF6D14FF00040A0F5800070470EF110
:10372000020E2EF0030E5EF8044B244204D44FEA3E
:103730004102B2F17F4F11D84FEA4003B3F17F4FFE
:103740000CD80ED14FEAD07CB2F17F4F0CEB4C0C71
:103750000CF1020C08BF4CEBD17C04E04FF0080CDC
:1037600001E04FEAD17C0CEB4C0324FA03F404F0A3
:103770000704B4F1040C06D20EEB840CBDE8104033
:103780004CF0010C6047DFE80CF0070802024FF034
:103790000040A0F5800010BD0846420018BFD2F1DD
:1037A000807288BF00F0004010BDFF2141EAD05078
:1037B000C005704780F0004090EA010F7FF59FAE92
:1037C00081F0004100F007B890EA010F48BF81F096
:1037D00000413FF594AE421A04D882F00042A0EBBB
:1037E000020011444FEAD0524FF07F4C1CEA410FC7
:1037F000A2EBD15318BF9CEA026F4AD04FF0004CA5
:103800004CEA00204CEA012121FA03FCB0EB0C0C3D
:103810000FD412F0FE0F36D05FEA4C001DD5001217
:1038200040EBC25038BF70471CF03F0F18BF7047C5
:103830000BE0A2F101025FEA1C2040EBC25038BF4E
:1038400070471CF07F0F18BF7047C3F120039940E9
:1038500014BF401E20F00100704780084FEA122379
:1038600008BF7047B0FA80FCA2EB0C02CCF1280C28
:1038700060FA0CF093EA122F04BF00EBC2507047BD
:103880004FEAC3707047130A5FEADC1008BF704745
:10389000F6E79CEA026F04D010EA5C0F08BF002034
:1038A000704710B5FFF73BFF40DFF63E81F0004068
:1038B00070470000000000000000002F0000000022
:1038C0000700070000147F147F1400242A7F2A12A7
:1038D0000062640813230036495522500000050396
:1038E000000000001C224100000041221C000014C6
:1038F000083E08140008083E0808000000A0600008
:103900000008080808080000606000000020100897
:103910000402003E5149453E0000427F4000004203
:1039200061514946002141454B31001814127F1066
:10393000002745454539003C4A4949300001710995
:10394000050300364949493600064949291E000049
:1039500036360000000056360000000814224100F0
:103960000014141414140000412214080002015120
:10397000090600324959513E007C1211127C007F29
:1039800049494936003E41414122007F4141221CC4
:10399000007F49494941007F09090901003E414929
:1039A000497A007F0808087F0000417F410000201D
:1039B00040413F01007F08142241007F40404040C9
:1039C000007F020C027F007F0408107F003E41410F
:1039D000413E007F09090906003E4151215E007FFA
:1039E000091929460046494949310001017F010171
:1039F000003F4040403F001F2040201F003F403814
:103A0000403F006314081463000708700807006152
:103A10005149454300007F41410000552A552A5530
:103A2000000041417F0000040201020400404040C8
:103A30004040000001020400002054545478007FEC
:103A40004844443800384444442000384444487FC3
:103A500000385454541800087E0901020018A4A428
:103A6000A47C007F080404780000447D40000040EE
:103A700080847D00007F102844000000417F4000CA
:103A8000007C04180478007C08040478003844445E
:103A9000443800FC242424180018242418FC007C3A
:103AA0000804040800485454542000043F444020B3
:103AB000003C4040207C001C2040201C003C40304A
:103AC000403C004428102844001CA0A0A07C0044D6
:103AD00064544C4414141414141400000000000026
:103AE00000000000000000000000000000F80000DE
:103AF0000000000000333000000000100C06100C25
:103B00000600000000000000000040C07840C078BF
:103B10004000043F04043F040400007088FC0830A7
:103B20000000001820FF211E0000F008F000E0183F
:103B3000000000211C031E211E0000F008887000F8
:103B400000001E2123241927211010160E0000004A
:103B500000000000000000000000000000E0180469
:103B60000200000000071820400000020418E000D6
:103B700000000040201807000000404080F0804016
:103B800040000202010F01020200000000F00000EC
:103B900000000101011F0101010000000000000000
:103BA000000080B070000000000000000000000075
:103BB00000000001010101010101000000000000FE
:103BC00000000030300000000000000000008060B5
:103BD0001804006018060100000000E0100808103A
:103BE000E000000F102020100F00001010F800005F
:103BF00000000020203F20200000007008080888F6
:103C000070000030282422213000003008888848C5
:103C100030000018202020110E000000C02010F8F5
:103C2000000000070424243F240000F808888808C6
:103C300008000019212020110E0000E010888818CB
:103C40000000000F112020110E0000380808C838AD
:103C500008000000003F000000000070880808888D
:103C60007000001C222121221C0000E01008081016
:103C7000E0000000312222110F00000000C0C0004F
:103C80000000000000303000000000000080000054
:103C90000000000080600000000000008040201054
:103CA000080000010204081020004040404040404D
:103CB00040000404040404040400000810204080B0
:103CC00000000020100804020100007048080808E5
:103CD000F0000000003036010000C030C828E810B5
:103CE000E0000718272423140B000000C038E00070
:103CF0000000203C23020227382008F888888870BA
:103D00000000203F202020110E00C03008080808C5
:103D10003800071820202010080008F808080810AC
:103D2000E000203F202020100F0008F88888E808D5
:103D30001000203F20202320180008F88888E80879
:103D40001000203F200003000000C03008080838A1
:103D5000000007182020221E020008F808000008B2
:103D6000F808203F210101213F20000808F8080839
:103D700000000020203F2020000000000808F80874
:103D80000800C08080807F00000008F888C02818E4
:103D90000800203F20012638200008F80800000015
:103DA0000000203F20202020300008F8F800F8F81C
:103DB0000800203F003F003F200008F830C0000806
:103DC000F808203F200007183F00E01008080810FE
:103DD000E0000F10202020100F0008F80808080845
:103DE000F000203F210101010000E0100808081048
:103DF000E0000F18242438504F0008F8888888887D
:103E00007000203F2000030C302000708808080854
:103E100038000038202121221C00180808F8080862
:103E200018000000203F2000000008F808000008EB
:103E3000F808001F202020201F000878880000C8F4
:103E40003808000007380E010000F80800F80008E4
:103E5000F800033C0700073C0300081868808068EE
:103E6000180820302C03032C30200838C800C8382C
:103E700008000000203F2000000010080808C83893
:103E800008002038262120201800000000FE020231
:103E900002000000007F40404000000C30C00000E5
:103EA0000000000000010638C00000020202FE000F
:103EB0000000004040407F000000000004020202B9
:103EC00004000000000000000000000000000000EE
:103ED00000008080808080808080000202040000DA
:103EE00000000000000000000000000080808080D2
:103EF00000000019242222223F2008F800808000C0
:103F00000000003F112020110E0000000080808082
:103F10000000000E11202020110000000080808889
:103F2000F800000E112020103F20000080808080CB
:103F30000000001F222222221300008080F08888C7
:103F400088180020203F2020000000008080808012
:103F50008000006B94949493600008F80080808047
:103F60000000203F210000203F20008098980000A2
:103F700000000020203F20200000000000809898D2
:103F8000000000C08080807F000008F80000808072
:103F90008000203F24022D302000000808F8000097
:103FA00000000020203F2020000080808080808052
:103FB0008000203F20003F20003F808000808080E4
:103FC0000000203F210000203F20000080808080F2
:103FD0000000001F202020201F0080800080800023
:103FE000000080FFA12020110E00000000808080D2
:103FF0008000000E112020A0FF8080808000808043
:10400000800020203F21200001000000808080806F
:1040100080000033242424241900008080E0808064
:1040200000000000001F20200000808000000080B1
:104030008000001F202020103F2080808000008012
:10404000808000010E300806010080800080008022
:1040500080800F300C030C300F00008080008080C7
:1040600080000020312E0E312000808080000080F2
:10407000808080818E7018060100008080808080A2
:1040800080000021302C2221300000000000807CC4
:10409000020200000000003F404000000000FF005E
:1040A000000000000000FF0000000002027C800011
:1040B00000000040403F0000000000060101020235
:1040C000040400000000000000000000EC400008B4
:1040D00000000020D40B0000280100083043000835
:1040E000D40B00202C0700008401000801FF01FF11
:1040F000011E1D808EDFFF010370DF8E180BC0E0F4
:10410000F07C3E1E070303017F080C6C930103073C
:104110000F1E3CF8F0E080FE000D70E0F0FC3F1F49
:1041200007071F7EF8F0C087303C3E1F070307FFDC
:10413000030F1F3E383001FF0156021C801D848E84
:10414000DFFF010359DF8E0315070F180BC0E0F0E6
:104150007C3E1E070303017F000C6DC30103070FA4
:104160001E3CF8F0E0C0080D6C80E0F0FC3F1F073B
:10417000071F7EF8F07A3187303C3E1F0703076047
:10418000030F1F3E38301E7C44FF017D019905E27C
:10419000FFFA010101191B06041C7CA24A043B1012
:1041A0001102030406070809082848890E887808C0
:1041B0000822F8D95F41300840201009061960052F
:1041C000140F40807F180BF9A9A9ABABFDADABABC9
:1041D000A9420112000D14888B4828180E090848BE
:1041E00088483B180BF80C0B0808F840308F08077C
:1041F00001131B7F210129790D114380403FA01439
:104200004042CC000A1320222CA0FFA02826200028
:104210000F1240201F20444241405F404142444031
:10422000000F118060F8074020180F08C808082800
:1042300018220112FF2C100C03FD0B100106202187
:10424000080C12FE1292B2D2929292D2B29E7F18B3
:104250000B300F0484641F040404FF0401131808C6
:104260000202FAAAAFAAAA040412FA02020010116A
:1042700012120A7E0A0B0AFE0A2A4A3E0A12121D6E
:104280001060028C84198004139292FE180A0404B0
:104290007E01407E42427E020413427E402809FC99
:1042A000242424FC252624080910A10810144030D9
:1042B0008F80844C55252525554C80808080497FF2
:1042C000091780080B124448507F40407F504844F3
:1042D000801BF888012AFF050215F81B1F08012A18
:1042E0007F2004139F80F01CFE0282012AFA05033E
:1042F0001182022D80601F400119810C104458402A
:104300008039C0080B134464544D46445464C404BB
:10431000C01C80403E672104117E80E00A1001121B
:104320002C020304042009060708090204060800F9
:04000005080000ED02
:00000001FF
