:020000040800F2
:10000000E80F002021180008ED030008EF030008A6
:10001000F3030008F7030008FB03000800000000DA
:10002000000000000000000000000000FF030008C6
:100030000104000800000000030400080504000893
:100040003B1800083B1800083B1800083B18000844
:100050003B1800083B180008130D0008F30C0008BB
:100060003B1800083B1800083B1800083B18000824
:100070003B1800083B1800083B1800083B18000814
:100080003B1800083B1800083B1800083B18000804
:100090003B1800083B1800083B180008A10C00089A
:1000A0003B1800083B1800083B1800083B180008E4
:1000B0003B180008A70D00083B1800083B18000873
:1000C0003B1800083B1800083B1800083B180008C4
:1000D0003B1800088B1700083B1800083B18000865
:1000E0003B1800083B1800083B18000800F002F815
:1000F00000F062F80AA090E8000C82448344AAF160
:100100000107DA4501D100F057F8AFF2090EBAE85D
:100110000F0013F0010F18BFFB1A43F0010318473B
:100120000C3E00002C3E00000A444FF0000C10F87A
:10013000013B13F0070408BF10F8014B1D1108BF65
:1001400010F8015B641E05D010F8016B641E01F805
:10015000016BF9D113F0080F1EBF10F8014BAD1C55
:100160000C1B09D16D1E58BF01F801CBFAD505E073
:1001700014F8016B01F8016B6D1EF9D59142D6D3CD
:10018000704700000023002400250026103A28BFF5
:1001900078C1FBD8520728BF30C148BF0B607047F9
:1001A000642903F06981732903F067820020704796
:1001B0001FB51FBD10B510BD03F07AFA1146FFF749
:1001C000F7FF00F026F803F098FA03B4FFF7F2FF08
:1001D00003BC01F07FFA000010B500F075FA5FA2D1
:1001E0000221002000F012FB5EA20221292000F073
:1001F0000DFB5EA20221492000F008FB5CA2042155
:10020000002000F003FB5CA20421312000F0FEFA84
:1002100010BD08B500200090002601F0F1F901F0B2
:10022000F9FA00F07AFB4FF4E13000F04DFE00F0F7
:10023000C7FC472140F2E73000F0C8FD00F010FE97
:10024000FFF7CAFF88E04D480078012811D10A2045
:1002500001F013FA4FF4FA71494803F04BF849A240
:100260000221292000F0D2FA44480078401E434978
:10027000087046480078012811D10A2001F0FDF9E4
:100280004FF47A713E4803F035F836A20221292056
:1002900000F0BCFA3D480078401E3C4908703C48DC
:1002A0000078012810D10A2001F0E7F940213948EF
:1002B00001F051FC38A20421312000F0A7FA3448A3
:1002C0000078401E3249087034480078012810D167
:1002D0000A2001F0D2F940212E4801F03EFC30A264
:1002E0000421312000F092FA2C480078401E2B495E
:1002F00008702C48008800F40040F8B129480088B4
:10030000C0F30D0528A003F039F800240DE02C48B7
:10031000015D2C4801F0CEFF00BF4021294802F0CA
:1003200037F80128F9D1601C84B2AC42EFDB26A07B
:1003300003F024F800201B4908800DE0701C86B2F1
:10034000C82096FBF0F100FB116010B920A003F06B
:1003500015F80A2001F091F975E7000050574D3A61
:10036000000000002D2D2D2D00000000687A0000F7
:100370004449522B3A00000078000000400400205D
:100380000004004031303030000000004204002002
:1003900041040020000C01402B0000004304002019
:1003A0002D000000A40400200D0AC4FAB7A2CBCD92
:1003B000B5C4CFFBCFA2CEAA3A0D0A0D0A000000A9
:1003C000BE080020003801400D0A0D0A00000000A0
:1003D000C7EBCAE4C8EBCAFDBEDD2CD2D4BBD8B390
:1003E000B5BCFCBDE1CAF80A00000000704700BFC0
:1003F000FEE700BFFEE700BFFEE700BFFEE7704775
:1004000070477047704700000CB5002001900090C5
:100410006C48006840F480306A49086000BF694851
:10042000006800F4003000900198401C0190009892
:1004300018B90198B0F5A06FF1D16248006800F4D6
:10044000003010B10120009001E0002000900098E1
:10045000012843D15C48006840F010005A49086008
:100460000846006820F0030008600846006840F075
:100470000200086053484068524948600846406896
:1004800048600846406840F480604860084640681C
:1004900020F47C1048600846406840F4E81048604A
:1004A0000846006840F08070086000BF454800685A
:1004B00000F000700028F9D04248406820F00300A6
:1004C000404948600846406840F00200486000BF6C
:1004D0003C48406800F00C000828F9D10CBD10B56C
:1004E000FFF792FF10BD10B53648006840F00100DC
:1004F000344908600846406834490840314948603A
:1005000008460068324908402E49086008460068DD
:1005100020F4802008600846406820F4FE0048600F
:100520004FF41F008860FFF7DAFF4FF000602949A1
:10053000086010BD10B5002100200022214B5B682F
:1005400003F00C0121B1042906D0082928D107E0C5
:10055000214B224C236027E01F4B204C236023E0DB
:10056000184B5B6803F47010164B5B6803F4803221
:10057000022303EB904022B9194B4343174C2360ED
:100580000DE0104B5B6803F4003323B1144B43437D
:10059000124C236003E0104B4343104C236003E0F4
:1005A0000D4B0E4C236000BF00BF064B5B68C3F3CE
:1005B00003130C4CE15C094B1B68CB40074C2360D8
:1005C00010BD000000100240002002400000FFF8B3
:1005D000FFFFF6FE08ED00E000127A004404002060
:1005E00000093D004804002070B504460E462EB1B7
:1005F0004FF40051FE4801F0AEFA04E04FF4005110
:10060000FB4801F0AAFA0821FA4801F0A6FA0025F1
:100610001BE04FF48071F74801F09FFA04F080006E
:1006200028B14FF40041F24801F095FA04E04FF48C
:100630000041EF4801F091FA4FF48071ED4801F06C
:100640008AFA6006040E681CC5B2082DE1DB082199
:10065000E84801F080FA4FF40051E54801F07BFAD8
:1006600070BD70B504460D4605F1B001C8B2002159
:10067000FFF7BAFF102141EA14100021FFF7B4FF81
:1006800004F00F0141F001000021FFF7ADFF70BD44
:1006900010B500218D20FFF7A7FF00211420FFF7E0
:1006A000A3FF0021AF20FFF79FFF10BD10B5002171
:1006B0008D20FFF799FF00211020FFF795FF002103
:1006C000AE20FFF791FF10BD70B5002419E004F1D2
:1006D000B001C8B20021FFF787FF00210846FFF7ED
:1006E00083FF00211020FFF77FFF002505E0012197
:1006F0000020FFF779FF681CC5B2802DF7DB601C76
:10070000C4B2082CE3DB70BD2DE9F04107460E466C
:10071000904600250024A8F12000C5B27F2F02DDFD
:100720000027B01CC6B231463846FFF79AFF0024B6
:1007300008E004EB0511B04A505C0121FFF754FFBB
:10074000601CC4B2082CF4DB701CC1B23846FFF741
:1007500088FF002409E004EB05110831A64A505C2B
:100760000121FFF741FF601CC4B2082CF3DBBDE898
:10077000F08110B50246012000E050430B1EA1F1AC
:100780000104E1B2F9D110BD2DE9FF5F07469146A2
:100790001D460E9E4FF0000A002433E0281B401E29
:1007A000C1B20A20FFF7E5FFB9FBF0F00A21B0FB68
:1007B000F1F201FB1208BAF1000F13D1681EA0423A
:1007C00010DDB8F1000F0BD1B34606EBDB71491019
:1007D00001FB0471C8B220220199FFF795FF0FE0D9
:1007E0004FF0010AB34606EBDB71491001FB0471BF
:1007F000C8B208F13001CAB20199FFF785FF00BF06
:10080000601CC4B2AC42C9DBBDE8FF9F2DE9F041DA
:1008100004460F46154600260EE0AA5D39462046DE
:10082000FFF772FF04F10800C4B2782C02DD002447
:10083000B81CC7B2701CC6B2A85D0028EDD1BDE8D7
:10084000F0812DE9F04180460E46154600273146DD
:100850004046FFF706FF00240AE0684A02EB8511D4
:10086000085D0121FFF7C0FE781CC7B2601CC4B24E
:10087000102CF2DB701CC1B24046FFF7F2FE0024E0
:100880000CE06900491C5D4A02EB4111085D012141
:10089000FFF7AAFE781CC7B2601CC4B2102CF0DBB4
:1008A000BDE8F0812DE9F05F06460F4690461C46F4
:1008B000DDF828A04FF0000BE11704EB5171C910CF
:1008C000A4EBC10131B92046E11704EB5171C1F32A
:1008D000C70506E02046E11704EB5171C910491C19
:1008E000CDB23D4615E029463046FFF7BAFEB14687
:1008F0000BE059460BF1010B1AF801000121FFF73B
:1009000073FE09F1010000F0FF09C145F1DB681C2D
:10091000C5B2A542E7DBBDE8F09F08B501210C2078
:1009200001F028FB4FF48070ADF8000010208DF826
:10093000030003208DF8020069462E4801F05EF89E
:100940004FF46040ADF8000010208DF80300032044
:100950008DF802006946264801F050F84FF4807186
:10096000244801F0F8F84FF46041214801F0F3F811
:100970004FF40050ADF800006946214801F03EF800
:100980004FF400511E4801F0E8F84FF48041184838
:1009900001F0E1F8642000F070FE4FF4804114484B
:1009A00001F0DBF8642000F068FE4FF4804110484D
:1009B00001F0D1F80021AE20FFF716FE0021084615
:1009C000FFF712FE00211020FFF70EFE002140204D
:1009D000FFF70AFE00218120FFF706FE0021CF204D
:1009E000FFF702FE0021A120FFF7FEFD002109E034
:1009F000000C0140000801403C3900085804002068
:100A000000100140C820FFF7EFFD0021A620FFF7EE
:100A1000EBFD0021A820FFF7E7FD00213F20FFF7B5
:100A2000E3FD0021D320FFF7DFFD00210846FFF79B
:100A3000DBFD0021D520FFF7D7FD00218020FFF747
:100A4000D3FD0021D920FFF7CFFD0021F120FFF7D2
:100A5000CBFD0021DA20FFF7C7FD00211220FFF7B0
:100A6000C3FD0021DB20FFF7BFFD00214020FFF781
:100A7000BBFD00212020FFF7B7FD00210220FFF77A
:100A8000B3FD00218D20FFF7AFFD00211420FFF7FB
:100A9000ABFD0021A420FFF7A7FD0021A620FFF752
:100AA000A3FD0021AF20FFF79FFD0021AF20FFF73E
:100AB0009BFDFFF709FE00210846FFF7D2FD08BDA8
:100AC00008B501210C2001F055FA4FF46070ADF823
:100AD000000048208DF803006946364800F08EFF7C
:100AE0000320ADF8000048208DF803006946324825
:100AF00000F084FF08BD10B5044614B101202F4951
:100B000008702E480078002837D001212A4801F0CB
:100B100008F878B10221284801F003F850B180218B
:100B2000244800F0FEFF28B14FF40071214800F086
:100B3000F8FF10BB052000F0A0FD00201F49087041
:100B400001211D4800F0EDFF08B9012010BD022170
:100B5000194800F0E6FF08B90220F7E780211548A0
:100B600000F0DFFF08B90320F0E74FF400711148EF
:100B700000F0D7FFD8B90420E8E701210E4800F0C3
:100B8000D0FF012813D102210B4800F0CAFF012831
:100B90000DD18021074800F0C4FF012807D1410290
:100BA000044800F0BEFF012801D10449087000206C
:100BB000CCE70000000C0140000801409804002030
:100BC0000EB5FFF77DFF0121084601F0D3F907219B
:100BD000012001F029F88020019000208DF8080004
:100BE0000C208DF8090001208DF80A0001A801F001
:100BF00037FC0121002001F017F80220019001A824
:100C000001F02EFC0021084601F00EF801200190B1
:100C100001A801F025FC0921012001F005F84FF49D
:100C20000070019001A801F01BFC17208DF8000056
:100C300002208DF8010003208DF8020001208DF8BC
:100C40000300684600F011FE17208DF80000022016
:100C50008DF801008DF8020001208DF80300684630
:100C600000F003FE07208DF8000002208DF801003F
:100C700001208DF802008DF80300684600F0F5FDB4
:100C800006208DF8000002208DF8010000208DF86C
:100C9000020001208DF80300684600F0E6FD0EBD5D
:100CA00010B50A2000F0E9FC4FF40071214800F073
:100CB00038FF012807D180211E4800F032FF10B90B
:100CC00001201D49087080211A4800F02AFF0128E0
:100CD00007D14102174800F024FF10B9012017493D
:100CE0000870802001F033FC4FF4007001F02FFCFD
:100CF00010BD10B50A2000F0C0FC0221104800F021
:100D000010FF10B901200F490870022001F01FFCEC
:100D100010BD10B50A2000F0B0FC0121084800F019
:100D200000FF10B9012008490870012001F00FFCF4
:100D300010BD0000000C01404304002040040020CE
:100D40000008014041040020420400207FB5054610
:100D50000C460121022001F01AF9ADF80850ADF857
:100D600004400020ADF80A00ADF8060001A938489B
:100D700001F0CAFC01221146354802F03CF81D2062
:100D80008DF8000000208DF8010003208DF802008E
:100D900001208DF80300684600F067FD01212C4812
:100DA00002F00EF87FBD10B50121294802F0D1FAFA
:100DB00058B10121264802F0DDFA2648006808B93A
:100DC000012000E000202349086010BD30B589B043
:100DD00005460C460121022001F0D9F80121092025
:100DE00001F0C8F801211C4800F0D9FE2020ADF820
:100DF000200018208DF8230003208DF8220008A978
:100E0000164800F0FBFDADF81850ADF81440002076
:100E1000ADF81A00ADF8160005A90D4801F074FCF4
:100E20007020ADF804000120ADF806000020ADF8F8
:100E30000C0001A9064801F0E6FC0821044802F074
:100E4000F8F80121024801F0BBFF09B030BD0000F5
:100E5000000400409401234200081A00000C0140E5
:100E600008B50121482001F085F84020ADF80000C8
:100E700010208DF8030003208DF802006946094810
:100E800000F0BCFD4021074800F065FE2020ADF8D1
:100E900000006946044800F0B1FD2021024800F03E
:100EA0005AFE08BD000C01400018014010B5102189
:100EB000FA4800F052FE4FF4FA7000F0DEFB102109
:100EC000F64800F048FE10BD38B504460121042064
:100ED00001F050F81020ADF800008DF80300032059
:100EE0008DF802006946ED4800F088FD2020ADF83D
:100EF00000006946E94800F081FD204600F0F9FB5A
:100F0000FFF7D4FF38BDF0B503460D46164600275F
:100F100029460A2E03D0002008702846F0BD33B9B8
:100F2000302001F8010B002008702846F6E7002B5E
:100F300003DA2D2001F8010B5B4242F210720DE042
:100F400093FBF2F404B937B104F1300001F8010B5E
:100F500004FB123301270A2092FBF0F2002AEFDC97
:100F6000002008702846D9E70FB470B586B0064651
:100F70000CA8019073E00B9800785C281CD10B98AA
:100F8000401C0B9000786E2809D072280FD10D21DB
:100F9000304601F08FF90B98401C0B900BE00A21B2
:100FA000304601F087F90B98401C0B9003E00B983A
:100FB000401C0B9000BF4BE00B980078252840D1D7
:100FC0000B98401C0B900078642818D0732833D1FC
:100FD000019810C801900BE02178304601F06AF9C1
:100FE00000BF8021304601F0D3F90028F9D0641CFD
:100FF00020780028F0D10B98401C0B9020E001983D
:1010000020C801900A2202A92846FFF77CFF02AC03
:101010000BE02178304601F04DF900BF80213046C9
:1010200001F0B6F90028F9D0641C20780028F0D12E
:101030000B98401C0B9003E00B98401C0B9000BFDA
:1010400006E00B9810F8011B0B90304601F032F9C6
:1010500000BF8021304601F09BF90028F9D00B98A1
:101060000078002887D106B070BC5DF814FB2DE92C
:10107000F04106460C4615461F468948B0F8000464
:101080006FF30E008649A1F80004324685A1874817
:10109000FFF76AFF1CB915B90120BDE8F081B8B2AD
:1010A00000F0EBFA4FF47A7000F0E7FA00207C4988
:1010B000B1F80014C1F30E01794A505411467CA0D6
:1010C00002F05CF9B4B1ADB12146754802F010FAF6
:1010D00008B1012000E0002040B92946704802F024
:1010E00007FA08B1012000E0002008B10120D4E790
:1010F0000020D2E744B12146694802F0F9F908B16D
:101100000120CAE70020C8E72946654802F0F0F947
:1011100008B10120C1E70020BFE710B500244FF45B
:101120007A7000F0AAFA0DE04FF4FA73002261A180
:1011300061A0FFF79CFF18B162A002F01FF910BD7B
:10114000601CC4B20A2CEFDB00BFF8E710B5044600
:1011500024B1012C0AD0022C18D10FE040F6C413A0
:101160005AA254A15CA0FFF782FF10BD40F6C41341
:1011700056A250A15BA0FFF77AFFF6E740F6C41332
:1011800052A24CA15AA0FFF772FFEEE70020ECE755
:1011900030B59FB004460D462B46224657A101A804
:1011A00002F0F8F841F28833002242A101A8FFF7CB
:1011B0005EFF1FB030BD10B586B004460CB10120F3
:1011C00000E00020024652A101A802F0E3F84FF42B
:1011D000FA73002237A101A8FFF749FF06B010BD3E
:1011E000F0B5B9B006460F4614461D46642120A846
:1011F00002F090F916B1012E10D107E03B4648A24B
:1012000048A120A8009402F0C5F808E03B4649A296
:1012100044A120A8009402F0BDF800E000BF00BF88
:10122000052D06DA20AB2A4643A102A802F0B2F847
:1012300004E020AA45A102A802F0ACF84FF47A63BA
:1012400046A21CA102A8FFF712FF39B0F0BD10B5ED
:101250004FF4FA73002217A144A0FFF708FF08B962
:10126000002010BD4FF4FA7344A212A144A0FFF76E
:10127000FEFEF6E72DE9F04186B007460C4615461E
:101280001E464FF000083FB1224609A10748FFF76C
:101290006BFE4FF0010896E078E000000008014086
:1012A000BC04002025730D0A00000000004400402B
:1012B000257300004F4B000041542B524553544FAF
:1012C000524500004F4B0D0A000000006E6F206376
:1012D00068616E676500000041542B43574D4F44D1
:1012E000453D310041542B43574D4F44453D32005D
:1012F00041542B43574D4F44453D330041542B43FC
:10130000574A41503D222573222C2225732200008A
:1013100041542B4349504D55583D25640000000071
:1013200054435000222573222C222573222C25732E
:10133000000000005544500041542B434950535481
:101340004152543D25642C257300000041542B4329
:10135000495053544152543D25730000414C52456D
:10136000415920434F4E4E454354000041542B43B6
:1013700049504D4F44453D31000000003E00000003
:1013800041542B43495053454E440000052E06DA84
:10139000AB1C32465DA101A801F0FCFF04E0AA1CD1
:1013A0005FA101A801F0F6FF4FF47A73002260A15B
:1013B00001A8FFF75CFE4FF47A7300225DA120467E
:1013C000FFF755FE8046404606B0BDE8F08110B5F7
:1013D0004FF47A7000F051F958A15948FFF7C4FD55
:1013E0004FF4FA7000F049F910BD10B54FF4FA73DC
:1013F0000022AFF2401153A0FFF739FEA0B155A172
:10140000574802F075F808B1022010BD55A15448A4
:1014100002F06EF808B10320F7E755A1504802F03A
:1014200067F808B10420F0E70020EEE770B5A0B03F
:1014300004460D4616462B46224650A102A80096A9
:1014400001F0A8FF4FF4FA730022AFF2981102A83E
:10145000FFF70DFE20B070BD30B59FB004460D46BD
:101460002B46224650A101A801F094FF4FF4FA73D5
:101470000022AFF2C01101A8FFF7F9FD1FB030BD87
:1014800010B59EB0044622464DA1684601F082FF89
:101490004FF4FA730022AFF2E4116846FFF7E7FD5C
:1014A0001EB010BD30B59FB004460D462B462246F7
:1014B00048A101A801F06EFF4FF47A730022AFF249
:1014C0000C2101A8FFF7D3FD1FB030BD00B59FB0C0
:1014D00047A101A801F05EFF4FF4FA730022AFF2BA
:1014E0002C2101A8FFF7C3FD1FB000BD70B5044655
:1014F0000D46002629462046FFF7D4FF4FF47A70A8
:1015000000F0BBF80126304670BD000041542B436B
:10151000495053454E443D25642C2564000000008D
:1015200041542B43495053454E443D25640000002F
:101530003E20000053454E44204F4B002B2B2B00E8
:101540000044004041542B43495053544154555397
:10155000000000005354415455533A320D0A000024
:10156000BC0400205354415455533A330D0A000033
:101570005354415455533A340D0A000041542B4DF5
:10158000515454555345524346473D302C312C223B
:101590002573222C222573222C222573222C302CF9
:1015A000302C22220000000041542B4D5154544352
:1015B0004F4E4E3D302C222573222C25642C3000BA
:1015C00041542B4D5154545355423D302C222573D8
:1015D000222C310041542B4D5154545055423D3032
:1015E0002C222573222C222573222C312C30000032
:1015F00041542B4D515454434C45414E3D30000015
:1016000010B56FF0040000F07AF92E4800682E49FA
:10161000B0FBF1F02D4908700846007800EB40015E
:10162000C1EBC0104FF6FF7101EAC00028490880E5
:1016300010BD0146254A12784A434FF0E0235A6113
:1016400000229A611A46126942F001021A6100BF33
:101650004FF0E022106900F001021AB100F480326C
:10166000002AF5D04FF0E022126922F001024FF07B
:10167000E0231A6100229A6170470146144A1288D9
:101680004A434FF0E0235A6100229A611A461269D8
:1016900042F001021A6100BF4FF0E022106900F031
:1016A00001021AB100F48032002AF5D04FF0E02296
:1016B000126922F001024FF0E0231A6100229A61C0
:1016C000704700004404002000127A009A040020B1
:1016D0009C040020014600BF704700BF494A1288A1
:1016E00002F04002002AF9D0C2B2464B1B1D1A80FC
:1016F000704710B586B00446012144F2050000F0A1
:1017000039FC4FF40070ADF8140003208DF816007A
:1017100018208DF8170005A93B4800F06FF94FF429
:101720008060ADF8140004208DF8170005A9364834
:1017300000F064F925208DF8000003208DF80100E9
:101740008DF8020001208DF80300684600F08DF846
:1017500001940020ADF80800ADF80A00ADF80C00C7
:10176000ADF810000C20ADF80E0001A9254800F0DE
:10177000A8FC012240F22551224800F03AFD012147
:10178000204800F02AFD06B010BD10B540F22551EA
:101790001C4800F013FE10B31A4800F08FFDC4B2CD
:1017A0001A48008800F40040C8B91848008800F4BE
:1017B000804060B10A2C03D000201449088020E04A
:1017C0001248008840F400401049088019E00D2CB0
:1017D00006D10E48008840F480400C49088010E093
:1017E0000A480088C0F30D0009490C5407480088D6
:1017F000401C0649088008460088C72801DD0020F3
:10180000088010BD0038014000080140A4040020F9
:10181000BE08002010B54FF4A06000F021F810BD04
:101820000948804709480047FEE7FEE7FEE7FEE774
:10183000FEE7FEE7FEE7FEE7FEE7FEE704480549B0
:10184000054A064B70470000E7040008ED00000859
:10185000E8090020E80F0020E80B0020E80B00203A
:1018600031490143314A1160704770B500210023AE
:101870000F22C47804B32D4C246804F4E064C4F54A
:10188000E064210AC1F10403CA40447804FA03F178
:101890008478144021430901254C0678A155047829
:1018A00004F01F050124AC4005786D11AD0005F171
:1018B000E025C5F8004109E0047804F01F05012483
:1018C000AC401C4D0678761145F8264070BD1A4A8A
:1018D0000A400243154B1B1F1A60704739B1134A67
:1018E000121D12680243114B1B1D1A6006E00F4ABD
:1018F000121D126882430D4B1B1D1A60704704288D
:1019000008D14FF0E021096941F004014FF0E022D5
:10191000116107E04FF0E021096921F004014FF067
:10192000E0221161704700000000FA050CED00E0B4
:1019300000E400E080E100E080FFFF1F10B50446F6
:10194000CC48844208D10121042000F02DFB002165
:10195000042000F029FB46E0C748844208D1012159
:10196000082000F021FB0021082000F01DFB3AE0D8
:10197000C248844208D10121102000F015FB00214B
:10198000102000F011FB2EE0BD48844208D1012157
:10199000202000F009FB0021202000F005FB22E0C0
:1019A000B848844208D10121402000F0FDFA00210E
:1019B000402000F0F9FA16E0B348844208D1012132
:1019C000802000F0F1FA0021802000F0EDFA0AE01A
:1019D000AE48844207D10121801500F0E5FA0021CC
:1019E000A01500F0E1FA10BD10B50121084600F085
:1019F000DBFA0021012000F0D7FA10BD2DE9F041FB
:101A0000024600250026002000230024002791F82C
:101A100003C00CF00F0591F803C00CF0100CBCF1E2
:101A2000000F03D091F802C04CEA050591F800C000
:101A3000BCF1000F31D0146800202BE04FF0010CF6
:101A40000CFA00F3B1F800C00CEA03069E4220D164
:101A500083004FF00F0C0CFA03F7BC4305FA03FCAC
:101A60004CEA040491F803C0BCF1280F06D14FF0F2
:101A7000010C0CFA00FCC2F814C00AE091F803C093
:101A8000BCF1480F05D14FF0010C0CFA00FCC2F874
:101A900010C0401C0828D1D31460B1F800C0BCF1BC
:101AA000FF0F34DD546800202EE000F1080C4FF0E9
:101AB000010808FA0CF3B1F800C00CEA03069E42D4
:101AC00021D183004FF00F0C0CFA03F7BC4305FA49
:101AD00003FC4CEA040491F803C0BCF1280F05D1C3
:101AE00000F1080C08FA0CF8C2F8148091F803C051
:101AF000BCF1480F07D100F1080C4FF0010808FABB
:101B00000CF8C2F81080401C0828CED35460BDE801
:101B1000F0814FF6FF710180022181700421C170B4
:101B200070470246002093680B400BB1012000E093
:101B3000002070470146886880B270470246002046
:101B4000D3680B400BB1012000E000207047014634
:101B5000C86880B2704701617047416170470AB13F
:101B6000016100E041617047C16070474FF480320D
:101B70000A4382618161826182698269704702469B
:101B80000020434B18684FF68073184040EA02105B
:101B900008433F4B186070473E49C8617047F0B535
:101BA0000A46002300240021002500F00046B6F17B
:101BB000004F02D1364EF16901E0354E7168C0F335
:101BC000034583B200F44016B6F5401F08D121F05A
:101BD00070612F4E766826F070662D4F7E6012E0A1
:101BE00000F48016B6F5801F06D1032606FA05F428
:101BF000A14341F0706106E0460D360103FA06F696
:101C0000B14341F0706122B1460D360103FA06F688
:101C1000314300F00046B6F1004F02D11C4EF16195
:101C200001E01B4E7160F0BD30B500228B071C0F28
:101C30000F2303FA04F2164B08338C1053F82430A8
:101C40009343134C08348D1044F8253023468C10F0
:101C500053F824308C07240F00FA04F423430C4C6F
:101C600008348D1044F8253030BD0A49DC31086055
:101C70007047000000080140000C014000100140C6
:101C80000014014000180140001C014000200140E8
:101C90000000014000002042DF48006840F00100E1
:101CA000DD49086008464068DC490840DA49486078
:101CB00008460068DA490840D749086008460068C5
:101CC00020F4802008600846406820F4FE00486048
:101CD0004FF41F0088607047CF49096821F48031B4
:101CE000CD4A11601146096821F480211160B0F5D8
:101CF000803F03D0B0F5802F0ED106E0C6490968B9
:101D000041F48031C44A116007E0C349096841F4D5
:101D1000A021C14A116000E000BF00BF704710B5AC
:101D200001460022002300204A11012A02D1BA4CA8
:101D3000236806E0022A02D1B74C236A01E0B64CC0
:101D4000636A01F01F02012494401C400CB1012081
:101D500000E0002010BD38B50020009000240025D0
:101D600000BF3120FFF7DBFF05460098401C0090C4
:101D70000098B0F5A06F01D0002DF2D03120FFF710
:101D8000CEFF08B1012400E00024204638BD014602
:101D90000020A14A106820F0F80040EAC10010605D
:101DA0007047A04908607047024600209A4B586867
:101DB00020F47C1042EA01031843974B58607047A7
:101DC00098490866704701460020934A506820F001
:101DD00003000843506070478F48406800F00C00D3
:101DE0007047014600208C4A506820F0F0000843FC
:101DF0005060704701460020874A506820F4E06038
:101E000008435060704701460020834A506820F420
:101E1000605040EAC1005060704729B17E4A527A52
:101E200002437D4B5A7204E07B4A527A82437A4BDA
:101E30005A7270477B49D8310860704701460020CC
:101E4000754A506820F440400843506070470021B4
:101E5000714A20321170704A82F82010012802D095
:101E600004280AD104E001216B4A2032117005E0F8
:101E70000521694A2032117000E000BF00BF7047A1
:101E80006949086070476449096A0143624A1162FE
:101E90007047654944390860704730B50021002219
:101EA000002400235C4D6D6805F00C0121B104296C
:101EB00005D0082923D105E05C4D056022E05B4D8B
:101EC00005601FE0544D6D6805F47012524D6D6849
:101ED00005F48034022505EB92421CB9544D55435C
:101EE00005600BE04C4D6D6805F400351DB1504D9B
:101EF0005543056002E04D4D5543056002E04B4DF2
:101F0000056000BF00BF444D6D6805F0F001090990
:101F1000484D6B5C0568DD4045603F4D6D6805F4DC
:101F2000E061090A434D6B5C4568DD4085603A4DD0
:101F30006D6805F46051C90A3E4D6B5C4568DD4033
:101F4000C560354D6D6805F44041890B3A4D6B5CB9
:101F5000C568B5FBF3F5056130BD29B12E4A52695C
:101F600002432D4B5A6104E02B4A526982432A4BAB
:101F70005A61704729B1284A92690243264B9A61F7
:101F800004E0254A92698243234B9A61704729B144
:101F9000214AD2690243204BDA6104E01E4AD26929
:101FA00082431D4BDA61704729B11B4AD268024354
:101FB000194BDA6004E0184AD2688243164BDA60A3
:101FC000704729B1144A12690243134B1A6104E0A5
:101FD000114A12698243104B1A6170471249403905
:101FE000086070470F49C86470470B49C871704753
:101FF0000948406A40F080700749486270470146CE
:102000000020054A92680A400AB1012000E0002041
:102010007047014988727047001002400000FFF8C5
:10202000FFFFF6FE000042428004424200127A00A6
:1020300000093D00A6040020B604002010B50446A7
:10204000FB48844209D101218803FFF7ADFF00213D
:102050004FF48040FFF7A8FF32E0F648844209D1F0
:1020600001214804FFF7ADFF00214FF40030FFF7D6
:10207000A8FF25E0F048844209D101218804FFF738
:10208000A0FF00214FF48020FFF79BFF18E0EB48F2
:10209000844209D10121C804FFF793FF00214FF4C6
:1020A0000020FFF78EFF0BE0E548844208D10121B4
:1020B0000805FFF786FF00214FF48010FFF781FF2E
:1020C00010BD2DE9F04786B005460E460024A24615
:1020D00000BFA1460027B08900B100BF2F462C8A5F
:1020E0004CF6FF700440F08804432C82AC894EF615
:1020F000F3100440B08831890843718908430443D0
:10210000AC81AC8A4FF6FF400440B0890443AC82F6
:1021100001A8FFF7C2FEC648874202D1DDF810A031
:1021200001E0DDF80CA0A88900F4004040B10AEB02
:10213000CA0000EB0A1031684900B0FBF1F807E073
:102140000AEBCA0000EB0A1031688900B0FBF1F815
:102150006420B8FBF0F004012009642101FB108920
:10216000A88900F4004040B1322000EBC900B0FB68
:10217000F1F000F00700044308E0322000EB091002
:102180006421B0FBF1F000F00F0004432C8106B095
:10219000BDE8F0874FF41651016000218180C180B5
:1021A00001810C21418100218181704710B50246D7
:1021B0000020108A4FF2FF0318400B884C882343FD
:1021C0008C882343CC8823431843108210BD002100
:1021D000018041808180C180704721B1828942F4B1
:1021E0000052828104E082894DF6FF731A40828199
:1021F0007047F0B50346002400260025002040F675
:102200006A17B94200D100BF1846C1F3421401F069
:102210001F06012707FA06F5012C01D10C3004E056
:10222000022C01D1103000E014301AB107682F439E
:10223000076002E00768AF430760F0BD1AB1838A08
:102240000B43838202E0838A8B4383827047028A36
:102250004FF6F0731A400282028A0A4302827047E4
:1022600082894FF2FF731A40828182890A438281F8
:10227000704721B1828942F00202828104E08289A2
:102280004FF6FD731A4082817047028A4FF6DF7362
:102290001A400282028A0A430282704721B1028AEE
:1022A00042F48042028204E0028A4BF6FF731A4035
:1022B00002827047C1F30802828070470146888815
:1022C000C0F308007047818941F0010181817047A6
:1022D000028BD2B20283028B42EA01220283704750
:1022E000028B02F47F420283028B0A43028370470F
:1022F00021B1828A42F02002828204E0828A4FF673
:10230000DF731A408282704721B1828A42F0100244
:10231000828204E0828A4FF6EF731A40828270470D
:1023200021B1828A42F00802828204E0828A4FF65A
:10233000F7731A408282704721B1828942F40042C9
:10234000828103E08289C2F30E028281704721B14B
:10235000828A42F40062828204E0828A4FF2FF7332
:102360001A4082827047828A4FF6FB731A4082823B
:10237000828A0A438282704721B1828A42F0020235
:10238000828204E0828A4FF6FD731A40828270478F
:1023900002460020B1F5007F00D100BF13880B403A
:1023A0000BB1012000E00020704701F40072B2F58B
:1023B000007F00D100BFCA430280704770B502465B
:1023C000002400230025002040F66A16B14200D107
:1023D00000BFC1F3421501F01F03012606FA03F303
:1023E000012D02D19689334006E0022D02D1168AD2
:1023F000334001E0968A33400C12012606FA04F4B9
:102400001688344013B10CB1012000E0002070BDEB
:1024100010B50022002340F66A14A14200D100BF8B
:102420000A1201249440A3B2DC43048010BD0000D2
:10243000003801400044004000480040004C00408B
:1024400000500040002044490860091D0860091D33
:102450000860091D086041483F4914310860704711
:1024600000213D498279002A3AD00A461268036861
:102470009A430B461A600A1D126803689A430B1DA3
:102480001A60027911440A6803681A430A60324AE2
:102490000832126803689A432F4B08331A601A1DDA
:1024A000126803689A432C4B0C331A604279102A45
:1024B0000ED11A1F126803681A43274B08331A609B
:1024C0001A1D126803681A43234B0C331A600DE07F
:1024D0002149427911440A6803681A430A6005E0F9
:1024E000027911440A6803689A430A607047002120
:1024F000016001710C214171002181717047164901
:10250000103109680143144A1032116070470146C6
:102510000020114A143212680A400AB1012000E07A
:10252000002070470C4914310860704701460020B4
:102530000022094B1B6803EA0102074B14331B6896
:102540000B4013B10AB1012000E00020704702499E
:10255000143108607047000000040140FFFF0F00C5
:1025600010B50446FE48844208D10121C014FFF78B
:102570001BFD0021E014FFF717FDC4E0B4F1804F0C
:1025800008D101210846FFF71CFD00210120FFF7BB
:1025900018FDB8E0F348844208D101210220FFF77A
:1025A00010FD00210220FFF70CFDACE0EE48844254
:1025B00008D101210420FFF704FD00210420FFF7CA
:1025C00000FDA0E0E948844208D101210820FFF77E
:1025D000F8FC00210820FFF7F4FC94E0E448844272
:1025E00008D101211020FFF7ECFC00211020FFF79B
:1025F000E8FC88E0DF48844208D101212020FFF771
:10260000E0FC00212020FFF7DCFC7CE0DA4884427B
:1026100008D101214014FFF7C7FC00216014FFF727
:10262000C3FC70E0D548844209D10121C804FFF7FA
:10263000BBFC00214FF40020FFF7B6FC63E0D0485C
:10264000844209D101210805FFF7AEFC00214FF4B7
:102650008010FFF7A9FC56E0CA48844209D1012145
:102660004805FFF7A1FC00214FF40010FFF79CFC88
:1026700049E0C548844208D101214020FFF7A1FC70
:1026800000214020FFF79DFC3DE0C048844208D176
:1026900001218020FFF795FC00218020FFF791FCAD
:1026A00031E0BB48844208D101218015FFF789FC45
:1026B0000021A015FFF785FC25E0B648844209D12A
:1026C00001210804FFF770FC00214FF48030FFF770
:1026D0006BFC18E0B048844209D101214804FFF79F
:1026E00063FC00214FF40030FFF75EFC0BE0AB48C9
:1026F000844208D101218804FFF756FC00214FF4E1
:102700008020FFF751FC10BD00220288944B9842B4
:102710000ED0994B98420BD0B0F1804F08D0914B1E
:10272000984205D0904B984202D0904B984204D1E9
:102730004FF68F731A404B881A438D4B984207D03F
:102740008C4B984204D04FF6FF431A40CB881A4373
:1027500002808B8883850B880385814B98420BD040
:10276000854B984208D08B4B984205D08A4B9842B3
:1027700002D08A4B984201D10B7A038601238382CF
:10278000704770B5002400220023058C4FF6FE76BA
:1027900035400584028C8388048B4FF68F752C405E
:1027A000B51E2C400D882C43751E2A400D892A43E6
:1027B0004D882A436A4DA8420BD06F4DA84208D0DD
:1027C000744DA84205D0744DA84202D0734DA84262
:1027D00013D14FF6F7752A404D892A434FF6FB7502
:1027E0002A408D882A434FF6FF652B404FF6FF5550
:1027F0002B408D892B43CD892B4383800483CD8847
:102800008586028470BD70B5002400220023058CEB
:102810004FF6EF7635400584028C8388048B48F6AA
:10282000FF752C404FF6FF452C400D884FF6FF7684
:1028300006EA05252C434FF6DF752A400D8906EA86
:1028400005152A434D8806EA05152A43444DA8423A
:1028500002D0494DA8421DD14FF67F752A404D89BF
:102860004FF6FF7606EA05152A434FF6BF752A4054
:102870008D8806EA05152A434FF6FF352B404FF2A7
:10288000FF752B408D8906EA85052B43CD8906EA25
:1028900085052B4383800483CD880587028470BD22
:1028A00070B5002400220023058C4FF6FF663540EA
:1028B0000584028C8388848B4FF68F752C404FF6ED
:1028C000FC752C400D882C434FF6FF552A400D898E
:1028D0004FF6FF7606EA05252A434D8806EA0525C8
:1028E0002A431F4DA84202D0234DA8421DD14FF2CA
:1028F000FF752A404D894FF6FF7606EA05252A43E3
:102900004FF6FF352A408D8806EA05252A434EF604
:10291000FF752B404DF6FF752B408D8906EA051596
:102920002B43CD8906EA05152B4383808483CD880C
:102930008587028470BD70B5002200230024058CB9
:102940004EF6FF7635400584038C8488828B48F6EA
:10295000FF752A404FF6FF452A400D8820E0000011
:10296000002C01400004004000080040000C004022
:10297000001000400014004000340140004C0140B1
:10298000005001400054014000180040001C00406D
:102990000020004000400140004401400048014048
:1029A0004FF6FF7606EA05252A434DF6FF752B40C4
:1029B0000D8906EA05352B434D8806EA05352B437C
:1029C000FA4DA84202D0FA4DA84208D14BF6FF7545
:1029D0002C408D894FF6FF7606EA85152C438480BE
:1029E0008283CD88A0F84050038470BD828B4FF263
:1029F000FF331A408283828B4FF6FF7303EA012371
:102A00001A4382837047F0B50C4615460022002118
:102A10000026078C4EF6FF7C07EA0C070784828BA2
:102A2000018C4FF6FF7707EA043640F6FF473A403D
:102A30004FF6FF7707EA05273A434FF6FF7707EA95
:102A400003373A43D94FB8420ED0D94FB8420BD0D2
:102A5000B0F1804F08D0D74FB84205D0D64FB8421A
:102A600002D0D64FB84206D14DF6FF77394046F432
:102A70008057394305E047F6FF57394044F4805703
:102A8000394382830184F0BD828B4FF6F3731A4081
:102A90008283828B0A4382837047F0B50C461546C9
:102AA000002200210026078C4FF6FF6C07EA0C0776
:102AB0000784828B018C4FF6FF7707EA04264FF6D6
:102AC0000C773A404FF6FF7707EA03172F433A4354
:102AD000B64FB8420ED0B64FB8420BD0B0F1804FCF
:102AE00008D0B44FB84205D0B34FB84202D0B34F6C
:102AF000B84206D14FF6FF57394046F48077394344
:102B000005E04FF2FF57394044F480773943828320
:102B10000184F0BD028B4FF2FF331A400283028B17
:102B20004FF6FF7303EA01231A4302837047F0B59F
:102B30000C461546002200210026078C4FF6EF7C3C
:102B400007EA0C070784028B018C4FF6FF7707EA30
:102B5000041640F6FF473A404FF6FF7707EA03377F
:102B60003A434FF6FF7707EA05273A438F4FB842BB
:102B70000ED08F4FB8420BD0B0F1804F08D08D4FA0
:102B8000B84205D08C4FB84202D08C4FB84206D123
:102B90004FF6DF77394046F01007394305E04FF62E
:102BA0005F77394044F01007394302830184F0BD58
:102BB000028B4FF6F3731A400283028B0A4302839F
:102BC0007047F0B50C46154600220021068C4FF6E2
:102BD000FE773E400684028B018C4FF60C76324025
:102BE0007E1C06EA03162E433243704EB0420ED0CE
:102BF0006F4EB0420BD0B0F1804F08D06D4EB04256
:102C000005D06D4EB04202D06C4EB04206D14FF6A8
:102C1000FD76314044F00106314305E04FF6F5768C
:102C2000314044F00106314302830184F0BD70B5A8
:102C300005460C465D4885420ED05D4885420BD066
:102C4000B5F1804F08D05B48854205D05A4885428F
:102C500002D05A48854200D100E000BF208850B918
:102C60002389A28861882846FFF7ABFFE1882846C0
:102C7000FFF79EFF25E0208804280AD12389A28837
:102C800061882846FFF753FFE1882846FFF742FF97
:102C900017E0208808280AD12389A288618828465D
:102CA000FFF7FBFEE1882846FFF7EEFE09E02389E7
:102CB000A28861882846FFF7A6FEE1882846FFF72C
:102CC00095FE70BD2DE9F04105460C460026012712
:102CD000608808B9022600E00026A088012801D1FA
:102CE000022700E001272088A0B92389A2886188F3
:102CF0002846FFF766FFE1882846FFF759FF23893A
:102D00003A4631462846FFF712FFE1882846FFF78A
:102D100001FF13E02389A28861882846FFF707FF97
:102D2000E1882846FFF7F6FE23893A4631462846D1
:102D3000FFF747FFE1882846FFF73AFFBDE8F0813B
:102D40000A884B881A438B881A43CB881A430B890D
:102D50001A434B891A438B891A43A0F844207047C1
:102D60004FF6FF71818000210180C1804180017296
:102D700070470021018041808180C18001814181B3
:102D80008181C181704700210180418001218180C2
:102D90000021C18001817047002101804180818034
:102DA000C18001814181818170470000002C014078
:102DB000003401400004004000080040000C0040C6
:102DC00021B1028842F00102028004E002884FF63D
:102DD000FE731A400280704731B1B0F8442042F4CB
:102DE0000042A0F8442005E0B0F84420C2F30E02EF
:102DF000A0F8442070471AB183890B43838102E015
:102E000083898B43838170478182704741EA020343
:102E1000A0F8483070471AB183890B43838102E0E0
:102E200083898B438381704701894FF6F872114083
:102E3000018170470A46002101894FF68F731940BE
:102E400011430181704730B504460D46294620469E
:102E5000FFF7F0FF208940F00700208130BD2DE909
:102E6000F04104460D4616461F46602D06D13B46EE
:102E7000012231462046FFF75AFE05E03B4601227B
:102E800031462046FFF79DFE29462046FFF7D2FF38
:102E9000208940F007002081BDE8F08130B50C4664
:102EA00000210189C9B24FF6FF7505EA03251543D4
:102EB00025432943018130BD2DE9F04105460E46E9
:102EC00017469846002443463A4631462846FFF7BF
:102ED000E5FF2C894FF6F870044044F007044FF6E4
:102EE0008F70044044F070042C81BDE8F081F0B58F
:102EF00004460D4616461F463B46324629462046A6
:102F0000FFF7CCFF208940F480402081F0BD01858F
:102F1000828270470A46002101884FF68F7319405C
:102F2000114301807047F0B50C4615461E4600213E
:102F3000002200230189028B038C4FF6F877394079
:102F400021434FF6FC473A4040F201173A434FF60F
:102F5000DD773B404FF6FF7707EA06172F433B43E9
:102F6000018102830384F0BD0A460021018B4FF6E4
:102F70008F7319401143018370470A460021018B6A
:102F800048F6FF7319404FF6FF7303EA0223194313
:102F9000018370470A460021818B4FF68F731940D9
:102FA0001143818370470A460021818B48F6FF73E5
:102FB00019404FF6FF7303EA0223194381837047D8
:102FC00021B1028842F08002028004E002884FF6BC
:102FD0007F731A400280704721B1828842F0040258
:102FE000828004E082884FF6FB731A40828070472B
:102FF00021B1828842F00802828004E082884FF684
:10300000F7731A408280704721B1828842F0010232
:10301000828004E082884FF6FE731A4082807047F7
:103020000A460021018B4FF6F773194011430183C3
:1030300070470A460021018B4FF2FF7319404FF68B
:10304000FF7303EA02231943018370470A460021F4
:10305000818B4FF6F77319401143818370470A46FD
:103060000021818B4FF2FF7319404FF6FF7303EA83
:1030700002231943818370470A460021018B4FF6D2
:10308000FB7319401143018370470A460021018BED
:103090004FF6FF3319404FF6FF7303EA022319433B
:1030A000018370470A460021818B4FF6FB7319405C
:1030B0001143818370470A460021818B4FF6FF330D
:1030C00019404FF6FF7303EA0223194381837047C7
:1030D0000A460021018B4FF67F731940114301838B
:1030E00070470A460021018BC1F30E014FF6FF73B2
:1030F00003EA02231943018370470A460021818BAA
:103100004FF67F7319401143818370470A460021AF
:10311000818BC1F30E014FF6FF7303EA02231943BB
:10312000818370470A460021018C4FF6FD731940D8
:103130001143018470470A460021018C4FF6F77352
:1031400019401143018470470A460021018C4FF653
:10315000DF7319404FF6FF7303EA0213194301842A
:1031600070470A460021018C4FF67F7319404FF6D5
:10317000FF7303EA02131943018470470A460021D2
:10318000018C4FF6FF5319404FF6FF7303EA0223F9
:103190001943018470470A460021018C4FF2FF73E6
:1031A00019404FF6FF7303EA022319430184704765
:1031B0000A460021018C4DF6FF7319404FF6FF734C
:1031C00003EA023319430184704730B50023012418
:1031D0008C40A3B2048C9C430484048C02FA01F555
:1031E000ADB22C43048430BD30B5002304248C40A0
:1031F000A3B2048C9C430484048C02FA01F5ADB2A2
:103200002C43048430BD70B50346002000241846CA
:10321000183001258D40ACB21D8CA5431D8409B129
:10322000082909D100EB6100056825F070050560EB
:103230000568154305600EE00D1FC5F34E052844D3
:10324000056825F4E045056005684FF6FF7606EA57
:1032500002263543056070BD21B1028842F00202AA
:10326000028004E002884FF6FD731A400280704726
:1032700021B1028842F00402028004E002884FF685
:10328000FB731A400280704721B1828842F08002AD
:10329000828004E082884FF67F731A4082807047F4
:1032A00002884FF6F7731A40028002880A430280B0
:1032B000704782884FF68F731A40828082880A4353
:1032C0008280704702894FF6F8731A4002810289A2
:1032D0000A430281704702894FF67F731A400281C8
:1032E00002890A4302817047818470478185704753
:1032F000818670470187704781877047A0F840102A
:10330000704702884FF6FF431A40028002880A4342
:10331000028070470146888E70470146088F7047CB
:103320000146888F70470146B1F84000704701465A
:10333000888C70470146088D704702460020138A2A
:103340000B400BB1012000E000207047CA4302820D
:10335000704730B50246002000230024158A05EA94
:103360000103958905EA010413B10CB1012000E0C5
:10337000002030BDCA430282704770470FB4044931
:1033800010B503AA029800F07DF910BC5DF814FB9B
:10339000A00400200FB41CB5074B06AA7B44694665
:1033A0000090059800F03FF90020694600F04EF9C2
:1033B0001CBC5DF814FB0000AD0200002DE9F041DB
:1033C0000E460446002020622046E168884730B35C
:1033D000252805D0D4E901219047206A401CF2E756
:1033E000E168204600278847050018D0A5F1410074
:1033F000192802D820354FF4006732462946204666
:103400002760FCF7CDFE40B1012804D0F61D26F060
:1034100007060836D8E7361DD6E72846DAE7206AD9
:10342000BDE8F08170B50C460546012A05D0287824
:10343000800600D5EA69002302E0012305E05B1C59
:10344000934202D2E05C0028F9D1A869E618C01ABC
:10345000A861286A184428622846AFF3008004E077
:10346000D5E9012114F8010B9047B442F8D328465E
:10347000AFF3008070BD00002DE9F0410646002446
:1034800010687529314616A510D0AFF300800028CA
:1034900002DA404213A507E031688A0701D512A578
:1034A00002E0490704D511A5012401E0AFF3008033
:1034B00000210A2206F1240709E0B0FBF2FCB0FB70
:1034C000F2F302FB1C00303078541846491C0028E7
:1034D000F3D123462A463046BDE8F04100F045B816
:1034E000000000002D0000002B0000002000000064
:1034F00030B505460B462A4613F8014B12F8010B6E
:1035000008B1A042F8D01CB1002802D06D1CF1E730
:10351000284630BD4FF0000200B51346944696464B
:10352000203922BFA0E80C50A0E80C50B1F12001D6
:10353000BFF4F7AF090728BFA0E80C5048BF0CC084
:103540005DF804EB890028BF40F8042B08BF7047E2
:1035500048BF20F8022B11F0804F18BF00F8012B54
:10356000704770477047704770472DE9F0470D4628
:1035700099469246044600F124080168880604D55D
:10358000E06921F01001216000E00120A84201DD86
:10359000471B00E00027A1697A1902EB0900081A0D
:1035A000A0612078C00602D42046AFF30080002638
:1035B00008E0D4E901211AF806009047206A401C6F
:1035C000761C20624E45F4DB2078C0060AD52046E2
:1035D000AFF3008006E0D4E9012130209047206A53
:1035E000401C2062381EA7F10107F4DC07E0D4E993
:1035F000012118F805009047206A401C2062281E0F
:10360000A5F10105F3DC2046AFF300802078000629
:1036100002D50220BDE8F0870120FBE701694A1CC2
:1036200002610878704700B58FB0CDE90131002103
:10363000059105497944CDE9031011466846FFF725
:10364000BDFE0FB000BD0000E5FFFFFF0A6802F8F5
:10365000010B0A60704710B5436913B1AFF30080E6
:1036600001E0FFF7DFFE012010BD127800F1240118
:103670000A7000224A700122EDE711684FF0FF3214
:10368000E9E70000074B70B50D467B44FFF7CBFF21
:103690000446284600F008F810B14FF0FF3070BD26
:1036A000204670BD4DE0FFFF007B00F080007047BA
:1036B000754600F02BF8AE4605006946534620F0EB
:1036C0000700854618B020B5FEF7B8F8BDE82040E1
:1036D0004FF000064FF000074FF000084FF0000BCE
:1036E00021F00701AC46ACE8C009ACE8C009ACE881
:1036F000C009ACE8C0098D46704710B50446AFF369
:1037000000802046BDE81040FCF75FBD00487047D0
:10371000880900200000000000000000002F0000C9
:1037200000000700070000147F147F1400242A7F84
:103730002A12006264081323003649552250000003
:103740000503000000001C224100000041221C0073
:103750000014083E08140008083E0808000000A0F5
:1037600060000008080808080000606000000020F1
:1037700010080402003E5149453E0000427F4000CF
:10378000004261514946002141454B310018141255
:103790007F10002745454539003C4A494930000122
:1037A0007109050300364949493600064949291E71
:1037B00000003636000000005636000000081422D3
:1037C00041000014141414140000412214080002D3
:1037D0000151090600324959513E007C1211127CF8
:1037E000007F49494936003E41414122007F414125
:1037F000221C007F49494941007F09090901003E17
:103800004149497A007F0808087F0000417F410054
:10381000002040413F01007F08142241007F4040CA
:103820004040007F020C027F007F0408107F003EB2
:103830004141413E007F09090906003E4151215E98
:10384000007F091929460046494949310001017F95
:103850000101003F4040403F001F2040201F003F2B
:103860004038403F006314081463000708700807DD
:1038700000615149454300007F41410000552A55F0
:103880002A55000041417F0000040201020400406B
:10389000404040400000010204000020545454788D
:1038A000007F4844443800384444442000384444AD
:1038B000487F00385454541800087E09010200184B
:1038C000A4A4A47C007F080404780000447D400088
:1038D000004080847D00007F102844000000417F6C
:1038E0004000007C04180478007C08040478003848
:1038F0004444443800FC242424180018242418FCD0
:10390000007C0804040800485454542000043F4438
:103910004020003C4040207C001C2040201C003CFB
:103920004030403C004428102844001CA0A0A07C4B
:10393000004464544C441414141414140000000083
:10394000000000000000000000000000000000F87F
:1039500000000000000000333000000000100C06E2
:10396000100C0600000000000000000040C078407D
:10397000C0784000043F04043F040400007088FC49
:1039800008300000001820FF211E0000F008F000A1
:10399000E018000000211C031E211E0000F0088812
:1039A000700000001E2123241927211010160E007C
:1039B000000000000000000000000000000000E027
:1039C000180402000000000718204000000204183C
:1039D000E00000000040201807000000404080F098
:1039E000804040000202010F01020200000000F0CE
:1039F000000000000101011F0101010000000000A2
:103A00000000000080B07000000000000000000016
:103A1000000000000001010101010101000000009F
:103A20000000000000303000000000000000000036
:103A300080601804006018060100000000E0100813
:103A40000810E000000F102020100F00001010F8E8
:103A5000000000000020203F202000000070080827
:103A600008887000003028242221300000300888A7
:103A7000884830000018202020110E000000C020CF
:103A800010F8000000070424243F240000F80888F0
:103A9000880808000019212020110E0000E010887D
:103AA00088180000000F112020110E0000380808AF
:103AB000C83808000000003F0000000000708808BF
:103AC00008887000001C222121221C0000E0100840
:103AD0000810E0000000312222110F00000000C099
:103AE000C000000000000030300000000000008036
:103AF0000000000000008060000000000000804026
:103B0000201008000001020408102000404040403E
:103B10004040400004040404040404000008102091
:103B200040800000002010080402010000704808D6
:103B30000808F0000000003036010000C030C8283E
:103B4000E810E0000718272423140B000000C038F9
:103B5000E0000000203C23020227382008F8888873
:103B600088700000203F202020110E00C03008087F
:103B700008083800071820202010080008F8080856
:103B80000810E000203F202020100F0008F888884F
:103B9000E8081000203F20202320180008F888881B
:103BA000E8081000203F200003000000C030080893
:103BB0000838000007182020221E020008F808001C
:103BC0000008F808203F210101213F20000808F8E3
:103BD000080800000020203F202000000000080806
:103BE000F8080800C08080807F00000008F888C0C6
:103BF00028180800203F20012638200008F8080077
:103C000000000000203F20202020300008F8F800AD
:103C1000F8F80800203F003F003F200008F830C0BF
:103C20000008F808203F200007183F00E0100808AF
:103C30000810E0000F10202020100F0008F80808DE
:103C40000808F000203F210101010000E0100808F1
:103C50000810E0000F18242438504F0008F8888816
:103C600088887000203F2000030C302000708808F6
:103C7000080838000038202121221C00180808F804
:103C8000080818000000203F2000000008F8080085
:103C90000008F808001F202020201F000878880056
:103CA00000C83808000007380E010000F80800F8C6
:103CB0000008F800033C0700073C03000818688070
:103CC0008068180820302C03032C30200838C800E6
:103CD000C83808000000203F200000001008080835
:103CE000C83808002038262120201800000000FED7
:103CF000020202000000007F40404000000C30C083
:103D000000000000000000010638C00000020202AE
:103D1000FE000000004040407F0000000000040260
:103D2000020204000000000000000000000000008B
:103D3000000000008080808080808080000202047B
:103D40000000000000000000000000000000808073
:103D5000808000000019242222223F2008F80080E1
:103D600080000000003F112020110E0000000080A4
:103D700080800000000E1120202011000000008033
:103D80008088F800000E112020103F200000808065
:103D900080800000001F222222221300008080F079
:103DA000888888180020203F2020000000008080A4
:103DB00080808000006B94949493600008F80080E9
:103DC00080800000203F210000203F200080989844
:103DD000000000000020203F2020000000000080A4
:103DE0009898000000C08080807F000008F80000E4
:103DF00080808000203F24022D302000000808F839
:103E0000000000000020203F2020000080808080F3
:103E100080808000203F20003F20003F8080008085
:103E200080800000203F210000203F200000808093
:103E300080800000001F202020201F008080008044
:103E40008000000080FFA12020110E0000000080F3
:103E500080808000000E112020A0FF8080808000E4
:103E60008080800020203F21200001000000808011
:103E7000808080000033242424241900008080E006
:103E8000808000000000001F2020000080800000D3
:103E900000808000001F202020103F2080808000B4
:103EA0000080808000010E300806010080800080C4
:103EB000008080800F300C030C300F0000808000E9
:103EC000808080000020312E0E3120008080800014
:103ED0000080808080818E701806010000808080C4
:103EE000808080000021302C222130000000000062
:103EF000807C020200000000003F40400000000003
:103F0000FF00000000000000FF0000000002027C33
:103F1000800000000040403F00000000000601015A
:103F20000202040400000000000000004C3F0008F2
:103F300000000020BC04000028010008E03F000849
:103F4000BC0400202C0B00008401000801FF01FFCD
:103F5000011E1D808EDFFF010370DF8E180BC0E095
:103F6000F07C3E1E070303017F080C6C93010307DE
:103F70000F1E3CF8F0E080FE000D70E0F0FC3F1FEB
:103F800007071F7EF8F0C087303C3E1F070307601D
:103F9000030F1F3E38301E7C44FF017D019905E26E
:103FA000FFFA0101617CA24A0423101102030406F6
:103FB000070809082848890E8878080822F8D94790
:103FC0004130084020100906196005120F40807F1B
:103FD000595AA912195A695E250204060800000000
:04000005080000ED02
:00000001FF
